:100000000C9463000C948B000C948B000C948B006C
:100010000C948B000C948B000C948B000C946E054C
:100020000C948B000C948B000C948B000C948B0024
:100030000C948B000C948B000C948B000C948B0014
:100040000C94CA050C948B000C9434050C94F904A0
:100050000C948B000C948B000C948B000C948B00F4
:100060000C948B000C948B000000000024002700EF
:100070002A0000000007000201000003040600003F
:1000800000000000000000000000230026002900FE
:10009000010204081020408001020408102001021F
:1000A0000408102000000000250028002B00040494
:1000B0000404040404040202020202020303030310
:1000C00003030200140611241FBECFEFD8E0DEBFE9
:1000D000CDBF11E0A0E0B1E0EAE9F7E102C0059090
:1000E0000D92A83EB107D9F722E0A8EEB1E001C019
:1000F0001D92A43BB207E1F710E0C3E6D0E004C0D4
:100100002197FE010E94C50BC236D107C9F70E9494
:1001100062060C9424090C94000008950F931F9319
:10012000CF93DF93FC01A685B7858D01005C1F4F3F
:10013000E8018881998101968F739927AD014E5B03
:100140005F4FEA012881398128173907D1F3E80187
:1001500028813981A20FB31F6C93A685B785A05C57
:10016000BF4F11969C938E93A689B7892C9181E0FD
:1001700090E0078C02C0880F991F0A94E2F7822B47
:100180008C9381E081A30488F589E02D80818064CF
:10019000808381E090E0DF91CF911F910F910895CE
:1001A000CF93DF936DE08AE892E00E948E00EC012D
:1001B0006AE08AE892E00E948E008C0F9D1FDF911A
:1001C000CF910895FC0181A1882329F0A489B589E4
:1001D0008C9186FFFBCF11A20895FC01A485B58503
:1001E000FD01E05CFF4F2081318132968081918159
:1001F0002817390779F080819181A80FB91F8C9158
:10020000208131812F5F3F4F2F733327318320832C
:1002100090E008958FEF9FEF0895DC011C96ED911B
:10022000FC911D97DF01A05CBF4F2D913C91119770
:1002300012968D919C9111972817390739F08D915D
:100240009C91E80FF91F808190E008958FEF9FEF58
:100250000895FC0124853585F901E05CFF4F80811C
:100260009181329620813181821B930B8F73992764
:1002700008958AE892E00C942901CF92DF92EF92E0
:10028000FF920F931F93CF93DF936C01EB017B01E0
:10029000E40EF51E00E010E0CE15DF0561F0699177
:1002A000D601ED91FC910190F081E02DC6010995F8
:1002B000080F191FF1CFC801DF91CF911F910F9146
:1002C000FF90EF90DF90CF90089590E0FC01EE5802
:1002D000FF4F2491FC01E057FF4F3491FC01E255A0
:1002E000FF4FE491EE2309F43CC0222339F123307F
:1002F00091F038F42130A9F0223001F584B58F7DDA
:1003000012C0263091F02730A1F02430B9F480914A
:1003100080008F7D03C0809180008F778093800064
:100320000DC084B58F7784BD09C08091B0008F77F0
:1003300003C08091B0008F7D8093B000F0E0EE0F9D
:10034000FF1FEC55FF4FA591B4919FB7F894611131
:1003500004C08C913095382302C0EC913E2B3C9325
:100360009FBF089590910001891324C0E2ECF0E052
:10037000E4919FEF90930001E130B9F098F0E23002
:10038000C9F4909170009D7F9093700091E09093DC
:10039000B0009091B100987F94609093B10010925A
:1003A000B30008C010926E0005C090916F009D7F51
:1003B00090936F0060E00C946501CF93DF9390E021
:1003C000FC01E057FF4F2491FC01E255FF4F84915F
:1003D000882361F190E0880F991FFC01E859FF4FD5
:1003E000C591D491FC01EC55FF4FA591B4916111D9
:1003F00009C09FB7F8948881209582238883EC9167
:100400002E230BC0623061F49FB7F8948881322F9D
:10041000309583238883EC912E2B2C939FBF06C0AD
:100420008FB7F894E8812E2B28838FBFDF91CF916F
:1004300008954F925F926F927F928F929F92AF92A8
:10044000BF92CF92DF92EF92FF921F93CF93DF93F1
:10045000EC0180910001893021F08F3F09F003C247
:1004600004C0E2ECF0E014916FC089E080930001D9
:10047000E2ECF0E014911F3F09F4F5C1113009F4EA
:1004800040C030F1123009F05FC01092B0001092FD
:10049000B1008091B00082608093B0008091B10083
:1004A00081608093B100E7EBF0E0E491F0E0EE0FC3
:1004B000FF1FEC55FF4F859194919093F30180932A
:1004C000F201E9E9F0E0E491E093F10112E0C6C144
:1004D00014BC15BC84B5826084BD85B5816085BDC2
:1004E000E7EBF0E0E491F0E0EE0FFF1FEC55FF4F7B
:1004F00085919491E9E9F0E0E491E093F50110E051
:10050000ADC11092800010928100809181008860BE
:100510008093810080918100816080938100E7EB6E
:10052000F0E0E491F0E0EE0FFF1FEC55FF4F8591F6
:100530009491E9E9F0E0E491E093F40161E089E06D
:100540000E94DD0111E0AAC017FD8DC161E089E0C4
:100550000E94DD01812F8D7F09F0A0C04E01A12CEA
:10056000B12C60E072E18AE790E0A50194010E945D
:100570008C0B29013A0169017A0121E0C21AD108E4
:10058000E108F1088FEFC816D104E104F10409F085
:1005900008F44BC060E472E48FE090E0A5019401A0
:1005A0000E948C0B69017A0181E0C81AD108E10828
:1005B000F108123001F52FEFC216D104E104F10465
:1005C00009F008F4E3C060E970ED83E090E0A50174
:1005D00094010E948C0B69017A0181E0C81AD1084C
:1005E000E108F1082FEFC216D104E104F10409F08B
:1005F00018F583E050C08FEFC816D104E104F10470
:10060000B1F0A8F068E478EE81E090E0A5019401F3
:100610000E948C0B69017A0181E0C81AD108E108B7
:10062000F108112309F4E7C0DDC081E001C082E0D8
:10063000111131C085BD64C068E478EE81E090E0BE
:10064000A50194010E948C0B69017A0181E0C81A0E
:10065000D108E108F1082FEFC216D104E104F1043A
:1006600009F008F491C064E274EF80E090E0A50125
:1006700094010E948C0B69017A0181E0C81AD108AB
:10068000E108F1082FEFC216D104E104F10411F0E2
:1006900008F07EC085E08093B10032C04E01A12CED
:1006A000B12C60E072E18AE790E0A50194010E941C
:1006B0008C0B69017A0181E0C81AD108E108F108C0
:1006C000C114D10421E0E206F10488F068E478EE78
:1006D00081E090E0A50194010E948C0B69017A01F0
:1006E00081E0C81AD108E108F10883E001C081E087
:1006F000113031F490918100987F892B8093810093
:100700009E01220F331FACE2B1E00E94AB0B28EE3A
:1007100033E040E050E00E946A0B113099F0123053
:1007200019F11111A0C0C7BC2093FE013093FF0145
:10073000409300025093010280916E00826080938A
:100740006E0091C0D0928900C09288002093FA0177
:100750003093FB014093FC015093FD0180916F00A9
:10076000826080936F007FC0C092B3002093F60137
:100770003093F7014093F8015093F9018091700094
:100780008260809370006FC084E085CF82E083CF69
:1007900062E17AE780E090E0A50194010E948C0B71
:1007A00069017A0181E0C81AD108E108F1088FEFE8
:1007B000C816D104E104F10499F090F0D301C2010C
:1007C0002AE0B595A795979587952A95D1F76C015D
:1007D0007D0121E0C21AD108E108F10887E05BCF72
:1007E00086E059CF2FEFC216D104E104F10409F0DD
:1007F00078F684E01DCF8FEFC816D104E104F10430
:1008000059F150F162E17AE780E090E0A5019401AE
:100810000E948C0B69017A0181E0C81AD108E108B5
:10082000F1082FEFC216D104E104F10499F090F021
:10083000D301C2013AE0B595A795979587953A956A
:10084000D1F76C017D0121E0C21AD108E108F1085D
:1008500085E0F0CE84E0EECE83E0ECCE61E089E08E
:100860000E94DD017BCEDF91CF911F91FF90EF9031
:10087000DF90CF90BF90AF909F908F907F906F90C0
:100880005F904F9008953FB7F8948091ED0190915B
:10089000EE01A091EF01B091F00126B5A89B05C033
:1008A0002F3F19F00196A11DB11D3FBFBA2FA92FEF
:1008B000982F8827820F911DA11DB11DBC01CD016C
:1008C00042E0660F771F881F991F4A95D1F7089558
:1008D000CF92DF92EF92FF92CF93DF936B017C0177
:1008E0000E944304EB01C114D104E104F10479F046
:1008F0000E9443046C1B7D0B683E7340A0F381E0B3
:10090000C81AD108E108F108C851DC4FECCFDF91DB
:10091000CF91FF90EF90DF90CF900895009769F00E
:10092000FC0101900020E9F73197AF01481B590BFA
:10093000BC018AE892E00C943D0180E090E00895CB
:10094000CF93DF930E948E04EC010E94D0008C0FA5
:100950009D1FDF91CF9108958F929F92AF92BF928A
:10096000EF92FF920F931F93CF93DF93CDB7DEB734
:10097000A1970FB6F894DEBF0FBECDBF162F042F80
:1009800019A2423008F40AE07E0121E2E20EF11CD5
:10099000802E912CA12CB12C612FA50194010E94D5
:1009A0006A0B029F1019112481E0E81AF1081A302D
:1009B00014F4105D01C0195CF7011083122F732F1E
:1009C000CA01232B242B252B39F7C7010E948E0443
:1009D000A1960FB6F894DEBF0FBECDBFDF91CF91C9
:1009E0001F910F91FF90EF90BF90AF909F908F90CD
:1009F00008951F920F920FB60F9211242F933F93D9
:100A00008F939F93EF93FF93209142023091430283
:100A100080914402909145022817390731F4809162
:100A2000C1008F7D8093C10014C0E0914402F09119
:100A30004502EE5FFD4F2081809144029091450276
:100A400001968F73992790934502809344022093D7
:100A5000C600FF91EF919F918F913F912F910F9041
:100A60000FBE0F901F9018951F920F920FB60F9206
:100A700011242F934F935F938F939F93EF93FF9343
:100A80008091C00082FD1CC02091C600809186022A
:100A900090918702409188025091890201968F734C
:100AA00099274817590771F0E0918602F091870263
:100AB000EA5BFD4F2083909387028093860202C0F9
:100AC0008091C600FF91EF919F918F915F914F911F
:100AD0002F910F900FBE0F901F9018951F920F929D
:100AE0000FB60F9211242F933F934F935F936F9301
:100AF0007F938F939F93AF93BF93EF93FF938091D7
:100B0000F6019091F701A091F801B091F901892BBC
:100B10008A2B8B2B51F19091F101E091F201F09130
:100B2000F3018081892780838091F6019091F701FC
:100B3000A091F801B091F901181619061A061B06C2
:100B4000C4F48091F6019091F701A091F801B09161
:100B5000F9010197A109B1098093F6019093F7017A
:100B6000A093F801B093F90104C0809100010E94A4
:100B7000B201FF91EF91BF91AF919F918F917F91C2
:100B80006F915F914F913F912F910F900FBE0F90FA
:100B90001F9018951F920F920FB60F9211242F934A
:100BA0003F938F939F93AF93BF938091E90190916F
:100BB000EA01A091EB01B091EC013091E80123E052
:100BC000230F2D3720F40196A11DB11D05C026E885
:100BD000230F0296A11DB11D2093E8018093E90126
:100BE0009093EA01A093EB01B093EC018091ED01A9
:100BF0009091EE01A091EF01B091F0010196A11D3D
:100C0000B11D8093ED019093EE01A093EF01B0939D
:100C1000F001BF91AF919F918F913F912F910F90D4
:100C20000FBE0F901F901895EAE8F2E0138212822F
:100C300088EE93E0A0E0B0E084839583A683B78339
:100C400085E091E09183808386E492E095878487B4
:100C500082E092E09787868785EC90E0918B808B8D
:100C600084EC90E0938B828B80EC90E0958B848B6E
:100C700081EC90E0978B868B82EC90E0918F808F57
:100C800086EC90E0938F828F84E0848F93E0958F41
:100C900027E0268F25E0278F21E020A3ECEAF2E071
:100CA0009083818380E991E093838283148215820B
:100CB0001682178261E083E00E94DD0160E084E03B
:100CC0000C94DD01789484B5826084BD84B5816024
:100CD00084BD85B5826085BD85B5816085BD809107
:100CE0006E00816080936E0010928100809181007F
:100CF0008260809381008091810081608093810077
:100D0000809180008160809380008091B100846038
:100D10008093B1008091B00081608093B000809199
:100D20007A00846080937A0080917A008260809358
:100D30007A0080917A00816080937A0080917A00B5
:100D4000806880937A001092C10061E089E00E947F
:100D5000DD0161E08AE00E94DD01E0919E02F091F8
:100D60009F0281E090E09C010090AA0202C0220F45
:100D7000331F0A94E2F72083E0919A02F0919B02DC
:100D80001082E0919C02F0919D022FEC2083109242
:100D9000AB02E091A002F091A10240819C01009081
:100DA000A60202C0220F331F0A94E2F7242B2083ED
:100DB000E091A002F091A10240819C010090A70265
:100DC00002C0220F331F0A94E2F7242B2083E09104
:100DD000A002F091A10240819C010090A80202C0F3
:100DE000220F331F0A94E2F7242B2083E091A00204
:100DF000F091A10220810090A90202C0880F991FE2
:100E00000A94E2F780958223808342E0242E312CDD
:100E1000C2E2D0E060E08091AC020E946501C101B5
:100E20000197F1F761E08091AC020E946501CE016B
:100E30000197F1F760E08091AC020E94650160913A
:100E4000AE027091AF0280E090E00E94410A4B0137
:100E50005C0120E030E040E250E40E94F80A2AE21F
:100E60003EE74CE05DE30E9499090E94120A00915E
:100E7000B0021091B1022091B2023091B30201157B
:100E800011052105310539F006171707280739071D
:100E900010F4C901B8012091AD0230E0F901E0572A
:100EA000FF4F1491F901E255FF4F2491AB01BC01B2
:100EB0007F70822F90E0880F991F8A579F4F2A01D9
:100EC0003B012FEF421A520A620A720AC12CD12C3E
:100ED0007601FC01A591B4912C91212312131AC023
:100EE0002FEFC21AD20AE20AF20AC414D504E604A9
:100EF000F70479F745C0260137012FEF421A520A4D
:100F0000620A720A4C155D056E057F0509F438C04A
:100F100073016201FC01A591B4912C91212312135C
:100F2000EACF2A013B014C185D086E087F08730167
:100F3000620120E030E0A901FC01A591B4916C911F
:100F4000612316130AC02C153D054E055F05C1F03F
:100F50002F5F3F4F4F4F5F4FEFCFA5E1B0E00E94B3
:100F6000BA0BDC01CB014096A11DB11DBC01CD0126
:100F700024E096958795779567952A95D1F703C0D4
:100F800060E070E0CB010E94410A20E030E040E0E8
:100F90005FE30E94F80A2AE23EE74CE05DE30E942C
:100FA000F80A6B017C0120E030E0A9010E9494095D
:100FB000882399F0A7019601C501B4010E94940904
:100FC00087FD0BC0A7019601C701B6010E94650B02
:100FD000882349F081E191E020C0C12CD12C80E828
:100FE000E82E8FEBF82E46015701E894B7F82FEF63
:100FF0003FEF4FE75FE7C501B4010E94650B811128
:101000000FC02FEF3FEF4FE75FE7C501B4010E942C
:10101000940918162CF485E191E00E948E0481C099
:101020002FEF3FEF4FE75FE4C701B6010E94F30ADD
:10103000181654F02FEF3FEF4FE75FECC701B601F2
:101040000E94940987FF03C089E191E0E6CF20E088
:1010500030E0A901C701B6010E94940987FF09C0C9
:101060006DE28AE892E00E948E00C701B6019058B6
:1010700002C0C701B6012AE037ED43EA5BE30E94F4
:1010800028094B015C010E94120A2B013C010E94BD
:10109000410A9B01AC01C501B4010E9427094B0123
:1010A0005C014AE0C301B2010E94AC048DE191E011
:1010B0000E948E0413E01150A1F120E030E040E2E4
:1010C00051E4C501B4010E94F80A2B013C010E94C1
:1010D0000B0A4B01770FAA08BB08B7FE10C06DE2E0
:1010E0008AE892E00E948E0088279927DC018819FF
:1010F0009909AA09BB094AE0BC01CD0103C04AE035
:10110000C501B4010E94AC04C501B4010E94430AA8
:101110009B01AC01C301B2010E9427094B015C0194
:10112000CACF0E94D00020E030E040E85FEBC7016A
:10113000B6010E949409811129C08FE191E00E94BB
:10114000A00482E491E00E94A00482E891E00E9461
:10115000A00403E010E088EE93E00E94190264E628
:1011600070E080E090E00E94680489E00E94B20193
:101170006AEF70E080E090E00E946804015011097D
:1011800051F76AEF70E080E090E059C020E030E075
:1011900044E352E4C701B6010E94F30A181644F56D
:1011A00020E030E040EA52E4C701B6010E94940911
:1011B0001816F4F085EB91E00E94A0048CE494E012
:1011C0000E94190261E08AE00E9465016CE271E010
:1011D00080E090E00E94680489E00E94B20160E033
:1011E0008AE00E94650164EF71E080E090E027C032
:1011F00020E030E044E352E4C701B6010E949409C4
:101200001816FCF08EEC91E00E94A0048CE494E0AF
:101210000E94190261E08AE00E94650168EC70E0BA
:1012200080E090E00E94680489E00E94B20160E0E2
:101230008AE00E94650168EC70E080E090E00E9426
:1012400068040E943901E6CDF8940C94CB0B5058F9
:10125000BB27AA270E943F090C94B90A0E94AB0A37
:1012600038F00E94B20A20F039F49F3F19F426F4B6
:101270000C94A80A0EF4E095E7FB0C94A20AE92F5F
:101280000E94CA0A58F3BA176207730784079507C2
:1012900020F079F4A6F50C94EC0A0EF4E0950B2EF0
:1012A000BA2FA02D0B01B90190010C01CA01A001B8
:1012B0001124FF27591B99F0593F50F4503E68F113
:1012C0001A16F040A22F232F342F4427585FF3CF54
:1012D000469537952795A795F0405395C9F77EF425
:1012E0001F16BA0B620B730B840BBAF09150A1F06E
:1012F000FF0FBB1F661F771F881FC2F70EC0BA0FF4
:10130000621F731F841F48F4879577956795B7957B
:10131000F7959E3F08F0B0CF9395880F08F0992776
:10132000EE0F9795879508950E947E0A08F481E054
:1013300008950E94AD090C94B90A0E94B20A58F0AF
:101340000E94AB0A40F029F45F3F29F00C94A20AF6
:1013500051110C94ED0A0C94A80A0E94CA0A68F371
:101360009923B1F3552391F3951B550BBB27AA275E
:1013700062177307840738F09F5F5F4F220F331F98
:10138000441FAA1FA9F335D00E2E3AF0E0E832D060
:1013900091505040E695001CCAF72BD0FE2F29D063
:1013A000660F771F881FBB1F261737074807AB0735
:1013B000B0E809F0BB0B802DBF01FF2793585F4FAA
:1013C0003AF09E3F510578F00C94A20A0C94ED0A75
:1013D0005F3FE4F3983ED4F3869577956795B7958C
:1013E000F7959F5FC9F7880F911D9695879597F997
:1013F0000895E1E0660F771F881FBB1F6217730710
:101400008407BA0720F0621B730B840BBA0BEE1F24
:1014100088F7E09508950E94120A6894B1110C941F
:10142000ED0A08950E94D20A88F09F5798F0B92FCC
:101430009927B751B0F0E1F0660F771F881F991F09
:101440001AF0BA95C9F714C0B13091F00E94EC0AB5
:10145000B1E008950C94EC0A672F782F8827B85FC5
:1014600039F0B93FCCF3869577956795B395D9F761
:101470003EF490958095709561957F4F8F4F9F4F6B
:101480000895E89409C097FB3EF490958095709577
:1014900061957F4F8F4F9F4F9923A9F0F92F96E9C0
:1014A000BB279395F695879577956795B795F11135
:1014B000F8CFFAF4BB0F11F460FF1BC06F5F7F4FD2
:1014C0008F4F9F4F16C0882311F096E911C07723E4
:1014D00021F09EE8872F762F05C0662371F096E8ED
:1014E000862F70E060E02AF09A95660F771F881FBC
:1014F000DAF7880F9695879597F90895990F000860
:10150000550FAA0BE0E8FEEF16161706E807F907D5
:10151000C0F012161306E407F50798F0621B730B70
:10152000840B950B39F40A2661F0232B242B252BF1
:1015300021F408950A2609F4A140A6958FEF811D94
:10154000811D089597F99F6780E870E060E0089535
:101550009FEF80EC089500240A94161617061806CB
:101560000906089500240A941216130614060506A7
:101570000895092E0394000C11F4882352F0BB0F38
:1015800040F4BF2B11F460FF04C06F5F7F4F8F4F9B
:101590009F4F089557FD9058440F551F59F05F3FD6
:1015A00071F04795880F97FB991F61F09F3F79F085
:1015B00087950895121613061406551FF2CF469507
:1015C000F1DF08C0161617061806991FF1CF869589
:1015D0007105610508940895E894BB27662777276D
:1015E000CB0197F908950E947E0A08F48FEF0895C1
:1015F0000E940B0B0C94B90A0E94AB0A38F00E94AF
:10160000B20A20F0952311F00C94A20A0C94A80AB7
:1016100011240C94ED0A0E94CA0A70F3959FC1F33D
:10162000950F50E0551F629FF001729FBB27F00D90
:10163000B11D639FAA27F00DB11DAA1F649F6627E5
:10164000B00DA11D661F829F2227B00DA11D621F34
:10165000739FB00DA11D621F839FA00D611D221FEE
:10166000749F3327A00D611D231F849F600D211DD2
:10167000822F762F6A2F11249F5750409AF0F1F055
:1016800088234AF0EE0FFF1FBB1F661F771F881FBE
:1016900091505040A9F79E3F510580F00C94A20A4A
:1016A0000C94ED0A5F3FE4F3983ED4F3869577956A
:1016B0006795B795F795E7959F5FC1F7FE2B880F64
:1016C000911D9695879597F908950E947E0A880B3B
:1016D000990B0895A1E21A2EAA1BBB1BFD010DC098
:1016E000AA1FBB1FEE1FFF1FA217B307E407F507D2
:1016F00020F0A21BB30BE40BF50B661F771F881FAE
:10170000991F1A9469F760957095809590959B0143
:10171000AC01BD01CF010895052E97FB1EF4009486
:101720000E94A30B57FD07D00E946A0B07FC03D051
:101730004EF40C94A30B50954095309521953F4F56
:101740004F4F5F4F089590958095709561957F4FAD
:101750008F4F9F4F0895A29FB001B39FC001A39FD9
:10176000700D811D1124911DB29F700D811D1124DA
:10177000911D08950E94AB0BA59F900DB49F900DF5
:10178000A49F800D911D11240895EE0FFF1F059059
:0A179000F491E02D0994F894FFCFC6
:10179A00FF000000008E003D012901ED000D01E26D
:1017AA00006E616E00696E66006F7666002E0055E7
:1017BA0070732120536F6D657468696E6720697351
:1017CA00206E6F7420776F726B696E672077656C15
:1017DA006C00506C6561736520636865636B207487
:1017EA00686520736F667477617265277320726506
:1017FA00706F7369746F727920696E2047697468B3
:10180A00756220666F72206D6F726520696E666FF1
:10181A003A007777772E6769746875622E636F6D01
:10182A002F53616D75656C2D64652D4F6C697665F6
:10183A006972612F62656E67616C615F757067724C
:10184A006164656400492066696E6420736F6D6522
:10185A007468696E6720666172206D65210049208F
:10186A0066696E6420736F6D657468696E67206E51
:08187A00656172206D6521001B
:00000001FF
