:100000000C945E000C9486000C9486000C94860080
:100010000C9486000C9486000C9486000C94990233
:100020000C9486000C9486000C9486000C94860038
:100030000C9486000C9486000C9486000C94860028
:100040000C94F5020C9486000C945F020C9424022C
:100050000C9486000C9486000C9486000C94860008
:100060000C9486000C94860000000007000201003A
:100070000003040600000000000000000200000071
:1000800000250028002B0000000000240027002A83
:100090000004040404040404040202020202020331
:1000A000030303030301020408102040800102043B
:1000B000081020010204081020003F0311241FBE75
:1000C000CFEFD8E0DEBFCDBF11E0A0E0B1E0EAEBBA
:1000D000FDE002C005900D92AA32B107D9F721E0E8
:1000E000AAE2B1E001C01D92AE3EB207E1F710E016
:1000F000CEE5D0E004C02197FE010E94D506CD35A3
:10010000D107C9F70E947A030C9482060C94000070
:10011000E8EAF0E02491E4E9F0E08491882399F0A2
:1001200090E0880F991FFC01E957FF4FA591B4910A
:10013000FC01E358FF4F859194918FB7F894EC91AF
:10014000E22BEC938FBF08950F931F93CF93DF9310
:10015000FC01A685B7858D01005C1F4FE8018881F1
:10016000998101968F739927AD014E5B5F4FEA012C
:100170002881398128173907D1F3E801288139818D
:10018000A20FB31F6C93A685B785A05CBF4F1196D5
:100190009C938E93A689B7892C9181E090E0078C7F
:1001A00002C0880F991F0A94E2F7822B8C9381E09A
:1001B00081A30488F589E02D80818064808381E0BB
:1001C00090E0DF91CF911F910F910895FC0181A1E3
:1001D000882329F0A489B5898C9186FFFBCF11A2D1
:1001E0000895FC01A485B585FD01E05CFF4F2081E9
:1001F00031813296808191812817390779F0808189
:100200009181A80FB91F8C91208131812F5F3F4FC1
:100210002F7333273183208390E008958FEF9FEF72
:100220000895DC011C96ED91FC911D97DF01A05C07
:10023000BF4F2D913C91119712968D919C911197E2
:100240002817390739F08D919C91E80FF91F8081AB
:1002500090E008958FEF9FEF0895FC012485358588
:10026000F901E05CFF4F80819181329620813181DC
:10027000821B930B8F73992708958CEC91E00C945B
:100280002D010895CF92DF92EF92FF920F931F936B
:10029000CF93DF936C01EB017B01E40EF51E00E0D0
:1002A00010E0CE15DF0561F06991D601ED91FC916A
:1002B0000190F081E02DC6010995080F191FF1CFBB
:1002C000C801DF91CF911F910F91FF90EF90DF90C8
:1002D000CF90089590910001891324C0ECE7F0E0DD
:1002E000E4919FEF90930001E130B9F098F0E23093
:1002F000C9F4909170009D7F9093700091E090936D
:10030000B0009091B100987F94609093B1001092EA
:10031000B30008C010926E0005C090916F009D7FE1
:1003200090936F0090E0FC01E859FF4F2491FC018D
:10033000EB55FF4F3491FC01EF56FF4FE491EE2354
:10034000B9F1222339F1233091F038F42130A9F0AA
:10035000223001F584B58F7D12C0263091F0273010
:10036000A1F02430B9F4809180008F7D03C080918A
:1003700080008F77809380000DC084B58F7784BD17
:1003800009C08091B0008F7703C08091B0008F7D4D
:100390008093B000F0E0EE0FFF1FE358FF4FA591F0
:1003A000B4919FB7F8948C91309538233C939FBFBC
:1003B00008953FB7F89480912F0190913001A0915A
:1003C0003101B091320126B5A89B05C02F3F19F02D
:1003D0000196A11DB11D3FBFBA2FA92F982F8827C5
:1003E000820F911DA11DB11DBC01CD0142E0660F20
:1003F000771F881F991F4A95D1F70895CF92DF92F2
:10040000EF92FF92CF93DF936B017C010E94D901A1
:10041000EB01C114D104E104F10479F00E94D90187
:100420006C1B7D0B683E7340A0F381E0C81AD108B5
:10043000E108F108C851DC4FECCFDF91CF91FF907C
:10044000EF90DF90CF9008951F920F920FB60F920A
:1004500011242F933F938F939F93EF93FF932091BA
:100460008401309185018091860190918701281740
:10047000390731F48091C1008F7D8093C10014C091
:10048000E0918601F0918701EC5BFE4F2081809125
:1004900086019091870101968F7399279093870128
:1004A000809386012093C600FF91EF919F918F91D9
:1004B0003F912F910F900FBE0F901F9018951F9294
:1004C0000F920FB60F9211242F934F935F938F9338
:1004D0009F93EF93FF938091C00082FD1CC02091F9
:1004E000C6008091C8019091C9014091CA01509104
:1004F000CB0101968F7399274817590771F0E09146
:10050000C801F091C901E857FE4F20839093C901BB
:100510008093C80102C08091C600FF91EF919F9126
:100520008F915F914F912F910F900FBE0F901F9061
:1005300018951F920F920FB60F9211242F933F938D
:100540004F935F936F937F938F939F93AF93BF93DB
:10055000EF93FF938091380190913901A0913A0176
:10056000B0913B01892B8A2B8B2B51F19091330158
:10057000E0913401F0913501808189278083809159
:10058000380190913901A0913A01B0913B011816C0
:1005900019061A061B06C4F480913801909139019E
:1005A000A0913A01B0913B010197A109B109809353
:1005B000380190933901A0933A01B0933B0104C0F4
:1005C000809100010E946A01FF91EF91BF91AF916C
:1005D0009F918F917F916F915F914F913F912F915B
:1005E0000F900FBE0F901F9018951F920F920FB68D
:1005F0000F9211242F933F938F939F93AF93BF93A9
:1006000080912B0190912C01A0912D01B0912E0190
:1006100030912A0123E0230F2D3720F40196A11DEC
:10062000B11D05C026E8230F0296A11DB11D209320
:100630002A0180932B0190932C01A0932D01B0935C
:100640002E0180912F0190913001A0913101B09144
:1006500032010196A11DB11D80932F0190933001AD
:10066000A0933101B0933201BF91AF919F918F91CF
:100670003F912F910F900FBE0F901F901895ECECAB
:10068000F1E01382128288EE93E0A0E0B0E0848370
:100690009583A683B78387E091E09183808388E880
:1006A00091E09587848784E491E09787868785EC3D
:1006B00090E0918B808B84EC90E0938B828B80EC2C
:1006C00090E0958B848B81EC90E0978B868B82EC0D
:1006D00090E0918F808F86EC90E0938F828F84E002
:1006E000848F83E0858F87E0868F85E0878F81E028
:1006F00080A30895CF93DF9300D000D01F92CDB791
:10070000DEB7789484B5826084BD84B5816084BD91
:1007100085B5826085BD85B5816085BD80916E009F
:10072000816080936E0010928100809181008260D0
:10073000809381008091810081608093810080910D
:1007400080008160809380008091B10084608093FC
:10075000B1008091B00081608093B00080917A00F8
:10076000846080937A0080917A00826080937A001E
:1007700080917A00816080937A0080917A0080680D
:1007800080937A001092C1000E948800E091E001FD
:10079000F091E10181E090E09C010090EC0102C049
:1007A000220F331F0A94E2F72083E091DC01F091DD
:1007B000DD011082E091DE01F091DF012FEC20835A
:1007C0001092ED01E091E201F091E30140819C0182
:1007D0000090E80102C0220F331F0A94E2F7242B95
:1007E0002083E091E201F091E30140819C010090BF
:1007F000E90102C0220F331F0A94E2F7242B208361
:10080000E091E201F091E30140819C010090EA0156
:1008100002C0220F331F0A94E2F7242B2083E091B9
:10082000E201F091E30120810090EB0102C0880F0A
:10083000991F0A94E2F7809582238083E2E14E2E8D
:10084000EAE75E2E612C712CF8EA2F2EF0E03F2EA5
:10085000009101011091020180910001833021F08B
:100860008F3F09F06EC105C0ECE7F0E0F491FD8325
:1008700070C023E020930001ECE7F0E0F491FD83E9
:10088000FF3F09F45EC1F13009F441C038F1F230A4
:1008900009F05FC01092B0001092B1008091B000DA
:1008A00082608093B0008091B10081608093B1003C
:1008B000E4E9F0E08491E82FF0E0EE0FFF1FE35849
:1008C000FF4F859194919093350180933401F1010C
:1008D000849180933301F2E0FD8311C214BC15BCF6
:1008E00084B5826084BD85B5816085BDE4E9F0E0B2
:1008F0008491E82FF0E0EE0FFF1FE358FF4F859142
:100900009491F1018491809337011D82F8C1109276
:100910008000109281008091810088608093810026
:1009200080918100816080938100E4E9F0E084910E
:10093000E82FF0E0EE0FFF1FE358FF4F85919491F1
:10094000F1018491809336010E948800F1E0FD83DB
:1009500081C02D8127FDF5C00E9488008D818D7F8B
:1009600009F078C04801A12CB12C60E072E18AE75F
:1009700090E0A50194010E94A70629833A834B8346
:100980005C8369017A0181E0C81AD108E108F108A5
:100990009FEFC916D104E104F10409F008F44EC038
:1009A00060E472E48FE090E0A50194010E94A70644
:1009B00069017A01E1E0CE1AD108E108F108FD8170
:1009C000F23009F52FEFC216D104E104F10409F069
:1009D00008F45EC160E970ED83E090E0A501940148
:1009E0000E94A70669017A0181E0C81AD108E108CE
:1009F000F1089FEFC916D104E104F10411F008F0E9
:100A0000D8C083E024C0EFEFCE16D104E104F10496
:100A1000B9F0B0F068E478EE81E090E0A5019401CF
:100A20000E94A70669017A01F1E0CF1AD108E10816
:100A3000F1082D81222309F42DC1F8C081E001C005
:100A400082E0FD81F11103C085BD37C085E0809350
:100A5000B10033C04801A12CB12C60E072E18AE7FB
:100A600090E0A50194010E94A70669017A0181E046
:100A7000C81AD108E108F108C114D10491E0E906CF
:100A8000F10488F068E478EE81E090E0A50194013B
:100A90000E94A70669017A01E1E0CE1AD108E108B7
:100AA000F10883E001C081E0FD81F13031F49091E3
:100AB0008100987F892B809381009801220F331F3A
:100AC000AAEFB0E00E94C60628EE33E040E050E016
:100AD0000E9485068D81813099F0823019F1811153
:100AE00030C0C7BC20934001309341014093420184
:100AF0005093430180916E00826080936E0021C00C
:100B0000D0928900C092880020933C0130933D012F
:100B100040933E0150933F0180916F00826080932B
:100B20006F000FC0C092B300209338013093390199
:100B300040933A0150933B01809170008260809312
:100B4000700046E150E063E171E08CEC91E00E94BE
:100B500042016DE08CEC91E00E94A4006AE08CEC14
:100B600091E00E94A4006AEF70E080E090E00E94B3
:100B7000FE0183E00E946A018091010190910201CF
:100B800084569109181619062CF49093020180934B
:100B9000010106C0E8EEF3E0F0930201E0930101E9
:100BA00068EE73E080E090E00E94FE010E943D014B
:100BB0004FCE68E478EE81E090E0A50194010E94B8
:100BC000A70669017A01F1E0CF1AD108E108F1081E
:100BD0002FEFC216D104E104F10431F128F164E2EF
:100BE00074EF80E090E0A50194010E94A7066901DE
:100BF0007A0181E0C81AD108E108F1089FEFC9160F
:100C0000D104E104F10409F008F420CFC301B201DA
:100C1000A50194010E94A70669017A01E1E0CE1ABC
:100C2000D108E108F10817C084E011CF2FEFC216F8
:100C3000D104E104F10409F008F45FC0C301B2017A
:100C4000A50194010E94A70669017A01F1E0CF1A7B
:100C5000D108E108F1082FEFC216D104E104F10434
:100C6000A9F0A0F089819A81AB81BC812AE0B59579
:100C7000A795979587952A95D1F76C017D01F1E0AD
:100C8000CF1AD108E108F10887E0E1CE86E0DFCE97
:100C900082E0DDCEEFEFCE16D104E104F10459F18C
:100CA00050F1C301B201A50194010E94A706690198
:100CB0007A0181E0C81AD108E108F1089FEFC9164E
:100CC000D104E104F104A9F0A0F089819A81AB81FB
:100CD000BC813AE0B595A795979587953A95D1F758
:100CE0006C017D01E1E0CE1AD108E108F10885E050
:100CF000ABCE84E0A9CE83E0A7CE84E0A2CE0E9452
:100D0000880030CEF8940C94DB06A1E21A2EAA1BC0
:100D1000BB1BFD010DC0AA1FBB1FEE1FFF1FA217AB
:100D2000B307E407F50720F0A21BB30BE40BF50BA8
:100D3000661F771F881F991F1A9469F76095709531
:100D4000809590959B01AC01BD01CF010895052EC2
:100D500097FB1EF400940E94BE0657FD07D00E9428
:100D6000850607FC03D04EF40C94BE0650954095C2
:100D7000309521953F4F4F4F5F4F08959095809547
:100D8000709561957F4F8F4F9F4F0895A29FB0013F
:100D9000B39FC001A39F700D811D1124911DB29FAF
:100DA000700D811D1124911D0895EE0FFF1F0590F8
:0A0DB000F491E02D0994F894FFCFB0
:100DBA00FFE80300000000A40042012D01F1001128
:100DCA0001E6005468652062757A7A657220646962
:0A0DDA00642061206E6F69736500EC
:00000001FF
