:100000000C945E000C9486000C9486000C94860080
:100010000C9486000C9486000C9486000C94990233
:100020000C9486000C9486000C9486000C94860038
:100030000C9486000C9486000C9486000C94860028
:100040000C94F5020C9486000C945F020C9424022C
:100050000C9486000C9486000C9486000C94860008
:100060000C9486000C94860000000007000201003A
:100070000003040600000000000000000200000071
:1000800000250028002B0000000000240027002A83
:100090000004040404040404040202020202020331
:1000A000030303030301020408102040800102043B
:1000B000081020010204081020003F0311241FBE75
:1000C000CFEFD8E0DEBFCDBF11E0A0E0B1E0E8E2C5
:1000D000FAE002C005900D92A832B107D9F721E0ED
:1000E000A8E2B1E001C01D92AC3EB207E1F710E01A
:1000F000CEE5D0E004C02197FE010E940C05CD356D
:10010000D107C9F70E947A030C9409050C940000EA
:10011000E8EAF0E02491E4E9F0E08491882399F0A2
:1001200090E0880F991FFC01E957FF4FA591B4910A
:10013000FC01E358FF4F859194918FB7F894EC91AF
:10014000E22BEC938FBF08950F931F93CF93DF9310
:10015000FC01A685B7858D01005C1F4FE8018881F1
:10016000998101968F739927AD014E5B5F4FEA012C
:100170002881398128173907D1F3E801288139818D
:10018000A20FB31F6C93A685B785A05CBF4F1196D5
:100190009C938E93A689B7892C9181E090E0078C7F
:1001A00002C0880F991F0A94E2F7822B8C9381E09A
:1001B00081A30488F589E02D80818064808381E0BB
:1001C00090E0DF91CF911F910F910895FC0181A1E3
:1001D000882329F0A489B5898C9186FFFBCF11A2D1
:1001E0000895FC01A485B585FD01E05CFF4F2081E9
:1001F00031813296808191812817390779F0808189
:100200009181A80FB91F8C91208131812F5F3F4FC1
:100210002F7333273183208390E008958FEF9FEF72
:100220000895DC011C96ED91FC911D97DF01A05C07
:10023000BF4F2D913C91119712968D919C911197E2
:100240002817390739F08D919C91E80FF91F8081AB
:1002500090E008958FEF9FEF0895FC012485358588
:10026000F901E05CFF4F80819181329620813181DC
:10027000821B930B8F73992708958AEC91E00C945D
:100280002D010895CF92DF92EF92FF920F931F936B
:10029000CF93DF936C01EB017B01E40EF51E00E0D0
:1002A00010E0CE15DF0561F06991D601ED91FC916A
:1002B0000190F081E02DC6010995080F191FF1CFBB
:1002C000C801DF91CF911F910F91FF90EF90DF90C8
:1002D000CF90089590910001891324C0ECE7F0E0DD
:1002E000E4919FEF90930001E130B9F098F0E23093
:1002F000C9F4909170009D7F9093700091E090936D
:10030000B0009091B100987F94609093B1001092EA
:10031000B30008C010926E0005C090916F009D7FE1
:1003200090936F0090E0FC01E859FF4F2491FC018D
:10033000EB55FF4F3491FC01EF56FF4FE491EE2354
:10034000B9F1222339F1233091F038F42130A9F0AA
:10035000223001F584B58F7D12C0263091F0273010
:10036000A1F02430B9F4809180008F7D03C080918A
:1003700080008F77809380000DC084B58F7784BD17
:1003800009C08091B0008F7703C08091B0008F7D4D
:100390008093B000F0E0EE0FFF1FE358FF4FA591F0
:1003A000B4919FB7F8948C91309538233C939FBFBC
:1003B00008953FB7F89480912D0190912E01A0915E
:1003C0002F01B091300126B5A89B05C02F3F19F031
:1003D0000196A11DB11D3FBFBA2FA92F982F8827C5
:1003E000820F911DA11DB11DBC01CD0142E0660F20
:1003F000771F881F991F4A95D1F70895CF92DF92F2
:10040000EF92FF92CF93DF936B017C010E94D901A1
:10041000EB01C114D104E104F10479F00E94D90187
:100420006C1B7D0B683E7340A0F381E0C81AD108B5
:10043000E108F108C851DC4FECCFDF91CF91FF907C
:10044000EF90DF90CF9008951F920F920FB60F920A
:1004500011242F933F938F939F93EF93FF932091BA
:100460008201309183018091840190918501281748
:10047000390731F48091C1008F7D8093C10014C091
:10048000E0918401F0918501EE5BFE4F2081809127
:1004900084019091850101968F739927909385012E
:1004A000809384012093C600FF91EF919F918F91DB
:1004B0003F912F910F900FBE0F901F9018951F9294
:1004C0000F920FB60F9211242F934F935F938F9338
:1004D0009F93EF93FF938091C00082FD1CC02091F9
:1004E000C6008091C6019091C7014091C80150910A
:1004F000C90101968F7399274817590771F0E09148
:10050000C601F091C701EA57FE4F20839093C701BF
:100510008093C60102C08091C600FF91EF919F9128
:100520008F915F914F912F910F900FBE0F901F9061
:1005300018951F920F920FB60F9211242F933F938D
:100540004F935F936F937F938F939F93AF93BF93DB
:10055000EF93FF938091360190913701A09138017C
:10056000B0913901892B8A2B8B2B51F1909131015C
:10057000E0913201F091330180818927808380915D
:10058000360190913701A0913801B09139011816C8
:1005900019061A061B06C4F48091360190913701A2
:1005A000A0913801B09139010197A109B109809357
:1005B000360190933701A0933801B093390104C0FC
:1005C000809100010E946A01FF91EF91BF91AF916C
:1005D0009F918F917F916F915F914F913F912F915B
:1005E0000F900FBE0F901F9018951F920F920FB68D
:1005F0000F9211242F933F938F939F93AF93BF93A9
:100600008091290190912A01A0912B01B0912C0198
:100610003091280123E0230F2D3720F40196A11DEE
:10062000B11D05C026E8230F0296A11DB11D209320
:1006300028018093290190932A01A0932B01B09364
:100640002C0180912D0190912E01A0912F01B0914C
:1006500030010196A11DB11D80932D0190932E01B3
:10066000A0932F01B0933001BF91AF919F918F91D3
:100670003F912F910F900FBE0F901F901895EAECAD
:10068000F1E01382128288EE93E0A0E0B0E0848370
:100690009583A683B78385E091E09183808386E884
:1006A00091E09587848782E491E09787868785EC3F
:1006B00090E0918B808B84EC90E0938B828B80EC2C
:1006C00090E0958B848B81EC90E0978B868B82EC0D
:1006D00090E0918F808F86EC90E0938F828F84E002
:1006E000848F83E0858F87E0868F85E0878F81E028
:1006F00080A30895789484B5826084BD84B58160B8
:1007000084BD85B5826085BD85B5816085BD8091DC
:100710006E00816080936E00109281008091810054
:10072000826080938100809181008160809381004C
:10073000809180008160809380008091B10084600E
:100740008093B1008091B00081608093B00080916F
:100750007A00846080937A0080917A00826080932E
:100760007A0080917A00816080937A0080917A008B
:10077000806880937A001092C1000E948800E09106
:10078000DE01F091DF0181E090E09C010090EA0140
:1007900002C0220F331F0A94E2F72083E091DA01AE
:1007A000F091DB011082E091DC01F091DD012FEC92
:1007B00020831092EB01E091E001F091E101408192
:1007C0009C010090E60102C0220F331F0A94E2F759
:1007D000242B2083E091E001F091E10140819C0114
:1007E0000090E70102C0220F331F0A94E2F7242B86
:1007F0002083E091E001F091E10140819C010090B3
:10080000E80102C0220F331F0A94E2F7242B208351
:10081000E091E001F091E10120810090E90102C046
:10082000880F991F0A94E2F7809582238083D6E08F
:100830003FEC932E44E0842E5BE4452E512C612C3A
:10084000712C64E5A62E60EDB62E7CE7C72E70E015
:10085000D72EE3E03E2E04E910E0F8EAEF2EF0E0B8
:10086000FF2E80910001833021F08F3F09F0A3C05B
:1008700003C0F601C49169C030920001F601C49131
:10088000CF3F09F498C0C13009F440C030F1C23004
:1008900009F05BC01092B0001092B1008091B000DE
:1008A00082608093B0008091B10081608093B1003C
:1008B000F8018491E82FF0E0EE0FFF1FE358FF4F9F
:1008C000859194919093330180933201F701849143
:1008D000809331010E94880098C014BC15BC84B577
:1008E000826084BD85B5816085BDF8018491E82F63
:1008F000F0E0EE0FFF1FE358FF4F85919491F70151
:100900008491809335010E9488006FC0109280000E
:100910001092810080918100886080938100809195
:100920008100816080938100F8018491E82FF0E0DC
:10093000EE0FFF1FE358FF4F85919491F7018491CB
:10094000809334010E9488000CC0C7FD34C00E940F
:100950008800CC2309F449C0C23009F456C0C13024
:10096000C1F480918100887F816080938100B09282
:100970008900A092880040923A0150923B01609217
:100980003C0170923D0180916F00826080936F0006
:1009900012C0C23081F484E58093B30040923601E6
:1009A0005092370160923801709239018091700045
:1009B0008260809370006AEF70E080E090E00E94B7
:1009C000FE0146E150E061E171E08AEC91E00E94B5
:1009D000420183E00E946A0168EE73E080E090E0EB
:1009E0000E94FE010E943D013CCF85BC97BC409215
:1009F0003E0150923F01609240017092410180910E
:100A00006E00826080936E00D6CFD093B1008FECE1
:100A1000C3CFF8940C941205EE0FFF1F0590F491CC
:080A2000E02D0994F894FFCFCA
:100A2800FF00000000A40042012D01F1001101E6C1
:100A3800005468652062757A7A657220646964205A
:080A48006120736F6E670A0064
:00000001FF
