:100000000C9462000C948A000C948A000C948A0070
:100010000C948A000C948A000C948A000C948A0038
:100020000C948A000C948A000C948A000C948A0028
:100030000C948A000C948A000C948A000C948A0018
:100040000C948B030C948A000C9451030C941603AB
:100050000C948A000C948A000C948A000C948A00F8
:100060000C948A000C948A000000000023002600F3
:100070002900000000070002010000030406000040
:1000800000000000000000000000250028002B00F8
:1000900000000000240027002A00040404040404D3
:1000A0000404020202020202030303030303010227
:1000B00004081020408001020408102001020408F6
:1000C0001020D50311241FBECFEFD8E0DEBFCDBF77
:1000D00011E0A0E0B1E0E4E5F1E102C005900D928D
:1000E000A836B107D9F722E0A8E6B1E001C01D9219
:1000F000AB32B207E1F710E0C2E6D0E004C02197CE
:10010000FE010E949308C136D107C9F70E948E04F0
:100110000C9420060C94000090E0FC01EE58FF4F78
:100120002491FC01E255FF4F3491FC01E656FF4F4C
:10013000E491EE2309F43CC0222339F1233091F0FD
:1001400038F42130A9F0223001F584B58F7D12C03A
:10015000263091F02730A1F02430B9F4809180004E
:100160008F7D03C0809180008F77809380000DC0C9
:1001700084B58F7784BD09C08091B0008F7703C0AC
:100180008091B0008F7D8093B000F0E0EE0FFF1FF4
:10019000EA57FF4FA591B4919FB7F894611104C03D
:1001A0008C913095382302C0EC913E2B3C939FBF3D
:1001B00008950F931F93CF93DF93FC01A685B78516
:1001C0008D01005C1F4FE8018881998101968F7332
:1001D0009927AD014E5B5F4FEA01288139812817CD
:1001E0003907D1F3E80128813981A20FB31F6C933D
:1001F000A685B785A05CBF4F11969C938E93A68968
:10020000B7892C9181E090E0078C02C0880F991F7C
:100210000A94E2F7822B8C9381E081A30488F5890C
:10022000E02D80818064808381E090E0DF91CF9138
:100230001F910F910895682F89EF91E00C94D900D8
:10024000FC0181A1882329F0A489B5898C9186FFBE
:10025000FBCF11A20895FC01A485B585FD01E05CEA
:10026000FF4F208131813296808191812817390793
:1002700079F080819181A80FB91F8C912081318103
:100280002F5F3F4F2F7333273183208390E00895F2
:100290008FEF9FEF0895DC011C96ED91FC911D9767
:1002A000DF01A05CBF4F2D913C91119712968D916B
:1002B0009C9111972817390739F08D919C91E80F7F
:1002C000F91F808190E008958FEF9FEF0895FC0162
:1002D00024853585F901E05CFF4F8081918132965C
:1002E00020813181821B930B8F739927089589EFA9
:1002F00091E00C9467010895CF92DF92EF92FF9204
:100300000F931F93CF93DF936C01EB017B01E40EFE
:10031000F51E00E010E0CE15DF0561F06991D60111
:10032000ED91FC910190F081E02DC6010995080F37
:10033000191FF1CFC801DF91CF911F910F91FF904D
:10034000EF90DF90CF9008953FB7F89480916D01C2
:1003500090916E01A0916F01B091700126B5A89B9C
:1003600005C02F3F19F00196A11DB11D3FBFBA2F47
:10037000A92F982F8827820F911DA11DB11DBC01A7
:10038000CD0142E0660F771F881F991F4A95D1F76C
:100390000895009769F0FC0101900020E9F731977A
:1003A000AF01481B590BBC0189EF91E00C947C0113
:1003B00080E090E008958F929F92AF92BF92EF926B
:1003C000FF920F931F93CF93DF93CDB7DEB7A19723
:1003D0000FB6F894DEBF0FBECDBF162F042F19A2A3
:1003E000423008F40AE07E0121E2E20EF11C802E88
:1003F000912CA12CB12C612FA50194010E946608BB
:10040000029F1019112481E0E81AF1081A3014F43F
:10041000105D01C0195CF7011083122F732FCA0100
:10042000232B242B252B39F7C7010E94C901A19644
:100430000FB6F894DEBF0FBECDBFDF91CF911F91F5
:100440000F91FF90EF90BF90AF909F908F90089585
:100450004F925F926F927F928F929F92AF92BF92D4
:10046000CF92DF92EF92FF92CF93DF936B017C01EB
:10047000B42E9B01AC010E946108882319F080E131
:1004800091E027C026013701E89477F82FEF3FEF7E
:100490004FE75FE7C301B2010E94610881110DC0FF
:1004A0002FEF3FEF4FE75FE7C301B2010E949006D5
:1004B00018161CF484E191E00CC02FEF3FEF4FE7DA
:1004C0005FE4C701B6010E94EF07181694F488E1B3
:1004D00091E0DF91CF91FF90EF90DF90CF90BF90B0
:1004E000AF909F908F907F906F905F904F900C9403
:1004F000C9012FEF3FEF4FE75FECC701B6010E9444
:10050000900687FDE4CF20E030E0A901C701B601E5
:100510000E94900687FF09C08DE20E941B01EC013A
:10052000F7FAF094F7F8F09402C0C0E0D0E0A12C04
:1005300060E070E080E09FE3BA1441F020E030E03A
:1005400040E251E40E949506A394F6CFA7019601DC
:100550000E9424066B017C010E940E072B013C01C6
:100560004AE00E94DB01C80FD91FBB2009F44EC02E
:10057000C301B2010E943D079B01AC01C701B60156
:100580000E9423062B013C0188E391E00E94C901EF
:10059000C80FD91FFB2C20E030E040E251E4C3013A
:1005A000B2010E94F4072B013C010E9407074B0196
:1005B000770FAA08BB08B7FE13C08DE20E941B018B
:1005C0006C0188279927DC0188199909AA09BB09B8
:1005D0004AE0BC01CD010E94DB018C0D9D1D05C0D0
:1005E0004AE0C501B4010E94DB01C80FD91FC50153
:1005F000B4010E943F079B01AC01C301B2010E94FC
:1006000023062B013C01FA94F110C5CFCE01DF91F6
:10061000CF91FF90EF90DF90CF90BF90AF909F90E1
:100620008F907F906F905F904F9008951F920F92E0
:100630000FB60F9211242F933F938F939F93EF93B5
:10064000FF932091B1013091B2018091B30190915B
:10065000B4012817390731F48091C1008F7D809350
:10066000C10014C0E091B301F091B401EF58FE4F06
:1006700020818091B3019091B40101968F739927E5
:100680009093B4018093B3012093C600FF91EF9142
:100690009F918F913F912F910F900FBE0F901F90C0
:1006A00018951F920F920FB60F9211242F934F930C
:1006B0005F938F939F93EF93FF938091C00082FD90
:1006C0001CC02091C6008091F5019091F6014091E7
:1006D000F7015091F80101968F7399274817590730
:1006E00071F0E091F501F091F601EB54FE4F20839B
:1006F0009093F6018093F50102C08091C600FF91AE
:10070000EF919F918F915F914F912F910F900FBE1D
:100710000F901F9018951F920F920FB60F921124F1
:100720002F933F938F939F93AF93BF9380916901D2
:1007300090916A01A0916B01B0916C0130916801B8
:1007400023E0230F2D3720F40196A11DB11D05C014
:1007500026E8230F0296A11DB11D20936801809306
:10076000690190936A01A0936B01B0936C01809131
:100770006D0190916E01A0916F01B0917001019691
:10078000A11DB11D80936D0190936E01A0936F0127
:10079000B0937001BF91AF919F918F913F912F9135
:1007A0000F900FBE0F901F901895CF93DF9310926C
:1007B000FC011092FB0188EE93E0A0E0B0E0809392
:1007C000FD019093FE01A093FF01B093000284E02D
:1007D00091E09093FA018093F90185EB91E0909379
:1007E00006028093050281E791E0909308028093CE
:1007F000070285EC90E090930A028093090284EC52
:1008000090E090930C0280930B0280EC90E0909328
:100810000E0280930D0281EC90E090931002809381
:100820000F0282EC90E0909312028093110286EC0A
:1008300090E0909314028093130284E08093150259
:1008400083E08093160287E08093170285E080930F
:10085000180281E080931902E1EBF0E02491EDE9C8
:10086000F0E08491882399F090E0880F991FFC01B3
:10087000E057FF4FA591B491FC01EA57FF4F8591D6
:1008800094918FB7F894EC91E22BEC938FBFE2EB4D
:10089000F0E02491EEE9F0E084918823C1F090E04B
:1008A000880F991FFC01E057FF4FC591D491FC01BF
:1008B000EA57FF4FA591B4919FB7F8948881E22F32
:1008C000E0958E2388838C91E823EC939FBF83E08F
:1008D00090E090931C0280931B0284E090E0909340
:1008E0001E0280931D0285E89CEFACEDB1E480937D
:1008F0001F0290932002A0932102B09322028CE960
:1009000093E5ACE8B2E48093230290932402A09391
:100910002502B0932602DF91CF910895789484B593
:10092000826084BD84B5816084BD85B5826085BDEB
:1009300085B5816085BD80916E00816080936E0079
:10094000109281008091810082608093810080916B
:10095000810081608093810080918000816080931C
:1009600080008091B10084608093B1008091B000DC
:1009700081608093B00080917A00846080937A00D7
:1009800080917A00826080937A0080917A00816001
:1009900080937A0080917A00806880937A00109228
:1009A000C100E0910D02F0910E0281E090E09C0107
:1009B0000090190202C0220F331F0A94E2F720832D
:1009C000E0910902F0910A021082E0910B02F0918D
:1009D0000C022FEC208310921A02E0910F02F0918A
:1009E000100240819C010090150202C0220F331FAB
:1009F0000A94E2F7242B2083E0910F02F091100279
:100A000040819C010090160202C0220F331F0A94FD
:100A1000E2F7242B2083E0910F02F0911002408135
:100A20009C010090170202C0220F331F0A94E2F7C4
:100A3000242B2083E0910F02F0911002208100907E
:100A4000180202C0880F991F0A94E2F7809582234A
:100A500080838CE191E00E94C9018DE00E941B011E
:100A60008AE00E941B0102E010E0C2E2D0E040E414
:100A7000842E42E4942E4FE0A42EB12C60E08091AD
:100A80001B020E948C00C8010197F1F761E0809180
:100A90001B020E948C00CE010197F1F760E080916B
:100AA0001B020E948C0080911D0290911E029927CA
:100AB000FC01E255FF4F7490FC01E656FF4F849114
:100AC00090E0880F991F88599F4F40E050E0BA018D
:100AD000FC01A591B4912C912721721217C04F5F90
:100AE0005F4F6F4F7F4F413422E452072FE0620780
:100AF000710571F73FC04F5F5F4F6F4F7F4F4134BC
:100B000022E452072FE062077105A1F1FC01A591D3
:100B1000B4912C9127217212EECF75016401C41A91
:100B2000D50AE60AF70A20E030E0A901FC01A59108
:100B3000B4916C91672176120AC0C216D306E406FE
:100B4000F506C1F02F5F3F4F4F4F5F4FEFCFA5E14D
:100B5000B0E00E948808DC01CB014096A11DB11DC8
:100B6000BC01CD0124E096958795779567952A95E8
:100B7000D1F703C060E070E0CB010E943F076B013A
:100B80007C0120911F02309120024091210250915E
:100B900022020E94950620E030E040E05FE30E94E0
:100BA000F4072B013C012091230230912402409153
:100BB000250250912602C701B6010E94950620E049
:100BC00030E040E05FE30E94F4076B017C018AE3C0
:100BD00091E00E94C90142E0C301B2010E942802D3
:100BE0008CE491E00E94C90142E0C701B6010E9475
:100BF00028028DE00E941B018AE00E941B010E94D6
:100C0000A4017B0188EE482E83E0582E612C712CC4
:100C10000E94A4016E197F09683E7340C8F321E069
:100C2000421A51086108710888E1E81A8CEFF80A45
:100C3000411451046104710459F70E9477011ECFD9
:100C4000F8940C94A8085058BB27AA270E943B068A
:100C50000C94B5070E94A70738F00E94AE0720F059
:100C600039F49F3F19F426F40C94A4070EF4E09590
:100C7000E7FB0C949E07E92F0E94C60758F3BA17AA
:100C8000620773078407950720F079F4A6F50C94A2
:100C9000E8070EF4E0950B2EBA2FA02D0B01B90139
:100CA00090010C01CA01A0011124FF27591B99F0E2
:100CB000593F50F4503E68F11A16F040A22F232FEE
:100CC000342F4427585FF3CF469537952795A7953E
:100CD000F0405395C9F77EF41F16BA0B620B730BE5
:100CE000840BBAF09150A1F0FF0FBB1F661F771F56
:100CF000881FC2F70EC0BA0F621F731F841F48F40B
:100D0000879577956795B795F7959E3F08F0B0CF93
:100D10009395880F08F09927EE0F9795879508957A
:100D20000E947A0708F481E008950E94A9060C94B5
:100D3000B5070E94AE0758F00E94A70740F029F4BB
:100D40005F3F29F00C949E0751110C94E9070C9415
:100D5000A4070E94C60768F39923B1F3552391F3C2
:100D6000951B550BBB27AA2762177307840738F01A
:100D70009F5F5F4F220F331F441FAA1FA9F335D077
:100D80000E2E3AF0E0E832D091505040E695001C2B
:100D9000CAF72BD0FE2F29D0660F771F881FBB1FE5
:100DA000261737074807AB07B0E809F0BB0B802DC3
:100DB000BF01FF2793585F4F3AF09E3F510578F0EF
:100DC0000C949E070C94E9075F3FE4F3983ED4F33C
:100DD000869577956795B795F7959F5FC9F7880FC3
:100DE000911D9695879597F90895E1E0660F771F15
:100DF000881FBB1F621773078407BA0720F0621BA6
:100E0000730B840BBA0BEE1F88F7E09508950E94D0
:100E10000E076894B1110C94E90708950E94CE075B
:100E200088F09F5798F0B92F9927B751B0F0E1F0AB
:100E3000660F771F881F991F1AF0BA95C9F714C05B
:100E4000B13091F00E94E807B1E008950C94E807F2
:100E5000672F782F8827B85F39F0B93FCCF3869594
:100E600077956795B395D9F73EF4909580957095F1
:100E700061957F4F8F4F9F4F0895E89409C097FB6E
:100E80003EF490958095709561957F4F8F4F9F4F61
:100E90009923A9F0F92F96E9BB279395F6958795A5
:100EA00077956795B795F111F8CFFAF4BB0F11F468
:100EB00060FF1BC06F5F7F4F8F4F9F4F16C088230F
:100EC00011F096E911C0772321F09EE8872F762F45
:100ED00005C0662371F096E8862F70E060E02AF086
:100EE0009A95660F771F881FDAF7880F9695879572
:100EF00097F90895990F0008550FAA0BE0E8FEEF47
:100F000016161706E807F907C0F012161306E407CD
:100F1000F50798F0621B730B840B950B39F40A26C6
:100F200061F0232B242B252B21F408950A2609F4A4
:100F3000A140A6958FEF811D811D089597F99F67A8
:100F400080E870E060E008959FEF80EC0895002451
:100F50000A941616170618060906089500240A941E
:100F600012161306140605060895092E0394000CA4
:100F700011F4882352F0BB0F40F4BF2B11F460FF33
:100F800004C06F5F7F4F8F4F9F4F089557FD90585C
:100F9000440F551F59F05F3F71F04795880F97FB3D
:100FA000991F61F09F3F79F08795089512161306F7
:100FB0001406551FF2CF4695F1DF08C01616170626
:100FC0001806991FF1CF869571056105089408955B
:100FD000E894BB2766277727CB0197F908950E94ED
:100FE0007A0708F48FEF08950E9407080C94B5075C
:100FF0000E94A70738F00E94AE0720F0952311F059
:101000000C949E070C94A40711240C94E9070E94E9
:10101000C60770F3959FC1F3950F50E0551F629F6F
:10102000F001729FBB27F00DB11D639FAA27F00D41
:10103000B11DAA1F649F6627B00DA11D661F829F68
:101040002227B00DA11D621F739FB00DA11D621F4D
:10105000839FA00D611D221F749F3327A00D611D6A
:10106000231F849F600D211D822F762F6A2F11244C
:101070009F5750409AF0F1F088234AF0EE0FFF1F7F
:10108000BB1F661F771F881F91505040A9F79E3FD6
:10109000510580F00C949E070C94E9075F3FE4F340
:1010A000983ED4F3869577956795B795F795E7952C
:1010B0009F5FC1F7FE2B880F911D9695879597F935
:1010C00008950E947A07880B990B0895A1E21A2EC1
:1010D000AA1BBB1BFD010DC0AA1FBB1FEE1FFF1FDC
:1010E000A217B307E407F50720F0A21BB30BE40B2C
:1010F000F50B661F771F881F991F1A9469F7609573
:101100007095809590959B01AC01BD01CF0108952C
:101110000E949908A59F900DB49F900DA49F800DEB
:10112000911D11240895EE0FFF1F0590F491E02DFD
:101130000994A29FB001B39FC001A39F700D811DB0
:101140001124911DB29F700D811D1124911D0895D0
:04115000F894FFCF41
:1011540000000000D9007C0167012B014B01200134
:101164006E616E00696E66006F766600526561643A
:10117400696E67207468652064617461206F6620FD
:1011840073656E736F722E2E2E0044697374616ED4
:1011940063696120656D20636D3A2000202D204431
:1011A400697374616E63696120656D20706F6C652D
:0811B40067616461733A2000D9
:00000001FF
