:100000000C9463000C948B000C948B000C948B006C
:100010000C948B000C948B000C948B000C94C702F6
:100020000C948B000C948B000C948B000C948B0024
:100030000C948B000C948B000C948B000C948B0014
:100040000C9423030C948B000C948D020C9452029C
:100050000C948B000C948B000C948B000C948B00F4
:100060000C948B000C948B000000000023002600F1
:1000700029000200000000240027002A00000000E0
:1000800000250028002B00040404040404040402D6
:100090000202020202030303030303010204081025
:1000A00020408001020408102001020408102000F2
:1000B0000000070002010000030406000000000029
:1000C000000000006D0311241FBECFEFD8E0DEBF9B
:1000D000CDBF11E0A0E0B1E0E8E4F0E102C005909E
:1000E0000D92A231B107D9F721E0A2E1B1E001C040
:1000F0001D92AE3DB207E1F710E0C3E6D0E004C0C8
:100100002197FE010E940D08C236D107C9F70E944F
:10011000BB030C943A060C9400000895CF92DF9232
:10012000EF92FF920F931F93CF93DF936C01EB013C
:100130007B01E40EF51E00E010E0CE15DF0561F056
:100140006991D601ED91FC910190F081E02DC601FD
:100150000995080F191FF1CFC801DF91CF911F91A9
:100160000F91FF90EF90DF90CF90089590E0FC0109
:10017000E155FF4F2491FC01E556FF4F3491FC01FE
:10018000E957FF4FE491EE2309F43CC0222339F1F3
:10019000233091F038F42130A9F0223001F584B5F4
:1001A0008F7D12C0263091F02730A1F02430B9F4B1
:1001B000809180008F7D03C0809180008F77809335
:1001C00080000DC084B58F7784BD09C08091B000D8
:1001D0008F7703C08091B0008F7D8093B000F0E0F6
:1001E000EE0FFF1FE358FF4FA591B4919FB7F8940E
:1001F000611104C08C913095382302C0EC913E2BE4
:100200003C939FBF0895CF93DF9390E0FC01E556A8
:10021000FF4F2491FC01E957FF4F8491882361F13E
:1002200090E0880F991FFC01ED58FF4FC591D491C4
:10023000FC01E358FF4FA591B491611109C09FB72C
:10024000F8948881209582238883EC912E230BC01B
:10025000623061F49FB7F8948881322F3095832300
:100260008883EC912E2B2C939FBF06C08FB7F894F8
:10027000E8812E2B28838FBFDF91CF9108950F93B4
:100280001F93CF93DF93FC01A685B7858D01005C9A
:100290001F4FE8018881998101968F739927AD01DD
:1002A0004E5B5F4FEA012881398128173907D1F366
:1002B000E80128813981A20FB31F6C93A685B78509
:1002C000A05CBF4F11969C938E93A689B7892C9101
:1002D00081E090E0078C02C0880F991F0A94E2F732
:1002E000822B8C9381E081A30488F589E02D8081A5
:1002F0008064808381E090E0DF91CF911F910F9126
:100300000895FC0181A1882329F0A489B5898C91E5
:1003100086FFFBCF11A20895FC01A485B585FD01E0
:10032000E05CFF4F208131813296808191812817D6
:10033000390779F080819181A80FB91F8C912081B4
:1003400031812F5F3F4F2F7333273183208390E01C
:1003500008958FEF9FEF0895DC011C96ED91FC91BD
:100360001D97DF01A05CBF4F2D913C911197129614
:100370008D919C9111972817390739F08D919C9197
:10038000E80FF91F808190E008958FEF9FEF0895A7
:10039000FC0124853585F901E05CFF4F8081918166
:1003A000329620813181821B930B8F739927089598
:1003B00084EB91E00C94C80190910001891324C052
:1003C000E2E7F0E0E4919FEF90930001E130B9F0B3
:1003D00098F0E230C9F4909170009D7F9093700086
:1003E00091E09093B0009091B100987F94609093C9
:1003F000B1001092B30008C010926E0005C0909139
:100400006F009D7F90936F0060E00C94B6003FB743
:10041000F8948091170190911801A0911901B09161
:100420001A0126B5A89B05C02F3F19F00196A11D02
:10043000B11D3FBFBA2FA92F982F8827820F911D7A
:10044000A11DB11DBC01CD0142E0660F771F881FC1
:10045000991F4A95D1F70895CF92DF92EF92FF92BC
:10046000CF93DF936B017C010E940702EB01C11463
:10047000D104E104F10479F00E9407026C1B7D0BAA
:10048000683E7340A0F381E0C81AD108E108F10882
:10049000C851DC4FECCFDF91CF91FF90EF90DF9010
:1004A000CF9008951F920F920FB60F9211242F93A1
:1004B0003F938F939F93EF93FF9320916C01309123
:1004C0006D0180916E0190916F012817390731F409
:1004D0008091C1008F7D8093C10014C0E0916E01B6
:1004E000F0916F01E45DFE4F208180916E0190914B
:1004F0006F0101968F73992790936F0180936E011E
:100500002093C600FF91EF919F918F913F912F9182
:100510000F900FBE0F901F9018951F920F920FB65D
:100520000F9211242F934F935F938F939F93EF9389
:10053000FF938091C00082FD1CC02091C600809175
:10054000B0019091B1014091B2015091B301019677
:100550008F7399274817590771F0E091B001F09116
:10056000B101E059FE4F20839093B1018093B00117
:1005700002C08091C600FF91EF919F918F915F9192
:100580004F912F910F900FBE0F901F9018951F92B3
:100590000F920FB60F9211242F933F934F935F93B7
:1005A0006F937F938F939F93AF93BF93EF93FF933B
:1005B0008091200190912101A0912201B09123010D
:1005C000892B8A2B8B2B51F190911B01E0911C01FF
:1005D000F0911D0180818927808380912001909175
:1005E0002101A0912201B0912301181619061A06C3
:1005F0001B06C4F48091200190912101A091220159
:10060000B09123010197A109B10980932001909332
:100610002101A0932201B093230104C08091000125
:100620000E94DC01FF91EF91BF91AF919F918F915B
:100630007F916F915F914F913F912F910F900FBEDE
:100640000F901F9018951F920F920FB60F921124C2
:100650002F933F938F939F93AF93BF9380911301F9
:1006600090911401A0911501B091160130911201E1
:1006700023E0230F2D3720F40196A11DB11D05C0E5
:1006800026E8230F0296A11DB11D2093120180932D
:10069000130190931401A0931501B093160180915A
:1006A000170190911801A0911901B0911A010196BA
:1006B000A11DB11D8093170190931801A0931901FA
:1006C000B0931A01BF91AF919F918F913F912F915C
:1006D0000F900FBE0F901F901895E4EBF1E013827E
:1006E000128288EE93E0A0E0B0E084839583A68335
:1006F000B78385E091E09183808380E791E09587DF
:1007000084878CE291E09787868785EC90E0918BD7
:10071000808B84EC90E0938B828B80EC90E0958BC7
:10072000848B81EC90E0978B868B82EC90E0918FAC
:10073000808F86EC90E0938F828F84E0848F93E0AB
:10074000958F27E0268F25E0278F21E020A3E6ED77
:10075000F1E09083818380E991E093838283148226
:1007600015821682178261E083E00E94030160E037
:1007700084E00C940301CF93DF9300D000D000D02D
:10078000CDB7DEB7789484B5826084BD84B58160CE
:1007900084BD85B5826085BD85B5816085BD80914C
:1007A0006E00816080936E001092810080918100C4
:1007B00082608093810080918100816080938100BC
:1007C000809180008160809380008091B10084607E
:1007D0008093B1008091B00081608093B0008091DF
:1007E0007A00846080937A0080917A00826080939E
:1007F0007A0080917A00816080937A0080917A00FB
:10080000806880937A001092C100E091C801F09155
:10081000C90181E090E09C010090D40102C0220F48
:10082000331F0A94E2F72083E091C401F091C501DF
:100830001082E091C601F091C7012FEC2083109245
:10084000D501E091CA01F091CB0140819C0100905B
:10085000D00102C0220F331F0A94E2F7242B208319
:10086000E091CA01F091CB0140819C010090D1013F
:1008700002C0220F331F0A94E2F7242B2083E09159
:10088000CA01F091CB0140819C010090D20102C0CD
:10089000220F331F0A94E2F7242B2083E091CA0130
:1008A000F091CB0120810090D30102C0880F991FE5
:1008B0000A94E2F780958223808314E0F5E0CF2E3E
:1008C000DD24D394E12CF12CA4EA2A2EA0E03A2EC8
:1008D00060E08091D6010E94B60082E090E001972E
:1008E000F1F761E08091D6010E94B60082E290E0CB
:1008F0000197F1F760E08091D6010E94B600609107
:10090000D8017091D90180E090E00E94E3064B018C
:100910005C0120E030E040E250E40E9495072AE2CA
:100920003EE74CE05DE30E9442060E94B406409020
:10093000DA015090DB016090DC017090DD01411420
:1009400051046104710439F04616570668067906A9
:1009500010F4C301B2012091D70130E0F901E5564E
:10096000FF4F0491F901E957FF4F2491AB01BC01FE
:100970007F70822F90E0880F991F9C0128593F4F6C
:100980003E832D83DB01CA010196A11DB11D898320
:100990009A83AB83BC83412C512C3201ED81FE81C3
:1009A000A591B4912C912023021320C09FEF491AE6
:1009B000590A690A790A89819A81AB81BC814816F2
:1009C00059066A067B0651F749C0D301C201019658
:1009D000A11DB11D89839A83AB83BC834415550542
:1009E0006605770509F43AC02C013D01ED81FE81D1
:1009F000A591B4912C9120230213E7CFDB01CA010A
:100A000084199509A609B7092C013D0120E030E0C1
:100A1000A901ED81FE81A591B4916C91602306132B
:100A20000AC02415350546055705C1F02F5F3F4F15
:100A30004F4F5F4FEECFA5E1B0E00E940208DC010E
:100A4000CB014096A11DB11DBC01CD0134E09695AE
:100A50008795779567953A95D1F703C060E070E088
:100A6000CB010E94E30620E030E040E05FE30E941B
:100A700095072AE23EE74CE05DE30E9495072B01D3
:100A80003C0120E030E0A9010E943D06882399F056
:100A9000A3019201C501B4010E943D0687FD0BC070
:100AA00020E030E040E451E4C301B2010E943D0681
:100AB00018160CF4C6C080910001893021F08F3FD8
:100AC00009F0B0C004C0E2E7F0E0049171C089E031
:100AD00080930001E2E7F0E004910F3F09F4A2C027
:100AE000013009F443C048F1023009F061C01092AE
:100AF000B0001092B1008091B00082608093B0008D
:100B00008091B10081608093B100E0E9F0E08491D0
:100B1000E82FF0E0EE0FFF1FE358FF4F859194910F
:100B200090931D0180931C01F101849180931B011E
:100B300061E089E00E94030199C014BC15BC84B532
:100B4000826084BD85B5816085BDE0E9F0E0849177
:100B5000E82FF0E0EE0FFF1FE358FF4F85919491CF
:100B6000F101849180931F0100E024C01092800065
:100B70001092810080918100886080938100809133
:100B80008100816080938100E0E9F0E08491E82FAA
:100B9000F0E0EE0FFF1FE358FF4F85919491F101B4
:100BA000849180931E0161E089E00E9403010EC0E0
:100BB00007FD38C061E089E00E940301002309F4C9
:100BC00043C0023009F452C00130D1F48091810059
:100BD000887F8160809381002FEB3BE33093890015
:100BE00020938800C0922401D0922501E092260132
:100BF000F092270180916F00826080936F0012C095
:100C0000023081F48FEB8093B300C0922001D09228
:100C10002101E0922201F092230180917000826014
:100C2000809370006AEF70E080E090E00E942C02F8
:100C300089E00E94DC0164EF71E080E090E00E94B6
:100C40002C020E94D80144CE33E035BD8EEE87BD24
:100C5000C0922801D0922901E0922A01F0922B0142
:100C600080916E00826080936E00DCCF1093B100A3
:100C70008EEEC9CFF8940C9422080E94200708F445
:100C800081E008950E9456060C945B070E94540769
:100C900058F00E944D0740F029F45F3F29F00C9472
:100CA000440751110C948F070C944A070E946C075B
:100CB00068F39923B1F3552391F3951B550BBB278B
:100CC000AA2762177307840738F09F5F5F4F220FD0
:100CD000331F441FAA1FA9F335D00E2E3AF0E0E8C7
:100CE00032D091505040E695001CCAF72BD0FE2F11
:100CF00029D0660F771F881FBB1F261737074807A5
:100D0000AB07B0E809F0BB0B802DBF01FF2793585C
:100D10005F4F3AF09E3F510578F00C9444070C94D5
:100D20008F075F3FE4F3983ED4F3869577956795F8
:100D3000B795F7959F5FC9F7880F911D9695879591
:100D400097F90895E1E0660F771F881FBB1F6217B0
:100D500073078407BA0720F0621B730B840BBA0B6E
:100D6000EE1F88F7E09508950E94740788F09F575A
:100D700098F0B92F9927B751B0F0E1F0660F771FBF
:100D8000881F991F1AF0BA95C9F714C0B13091F0B5
:100D90000E948E07B1E008950C948E07672F782F7C
:100DA0008827B85F39F0B93FCCF38695779567957A
:100DB000B395D9F73EF490958095709561957F4FE6
:100DC0008F4F9F4F0895E89409C097FB3EF490958C
:100DD0008095709561957F4F8F4F9F4F9923A9F014
:100DE000F92F96E9BB279395F695879577956795A3
:100DF000B795F111F8CFFAF4BB0F11F460FF1BC0E7
:100E00006F5F7F4F8F4F9F4F16C0882311F096E979
:100E100011C0772321F09EE8872F762F05C0662327
:100E200071F096E8862F70E060E02AF09A95660FE0
:100E3000771F881FDAF7880F9695879597F9089599
:100E4000990F0008550FAA0BE0E8FEEF16161706DB
:100E5000E807F907C0F012161306E407F50798F043
:100E6000621B730B840B950B39F40A2661F0232B5C
:100E7000242B252B21F408950A2609F4A140A695D8
:100E80008FEF811D811D089597F99F6780E870E0BD
:100E900060E008959FEF80EC089500240A941616F0
:100EA000170618060906089500240A941216130658
:100EB000140605060895092E0394000C11F48823E6
:100EC00052F0BB0F40F4BF2B11F460FF04C06F5F02
:100ED0007F4F8F4F9F4F089557FD9058440F551FD8
:100EE00059F05F3F71F04795880F97FB991F61F0AC
:100EF0009F3F79F087950895121613061406551F23
:100F0000F2CF4695F1DF08C0161617061806991F8E
:100F1000F1CF86957105610508940895E894BB2783
:100F200066277727CB0197F908950E94A8070C94AC
:100F30005B070E944D0738F00E94540720F095236C
:100F400011F00C9444070C944A0711240C948F0759
:100F50000E946C0770F3959FC1F3950F50E0551FE9
:100F6000629FF001729FBB27F00DB11D639FAA27FE
:100F7000F00DB11DAA1F649F6627B00DA11D661F4D
:100F8000829F2227B00DA11D621F739FB00DA11D6E
:100F9000621F839FA00D611D221F749F3327A00D28
:100FA000611D231F849F600D211D822F762F6A2FC4
:100FB00011249F5750409AF0F1F088234AF0EE0F29
:100FC000FF1FBB1F661F771F881F91505040A9F756
:100FD0009E3F510580F00C9444070C948F075F3FAF
:100FE000E4F3983ED4F3869577956795B795F79592
:100FF000E7959F5FC1F7FE2B880F911D969587950A
:1010000097F908950E941308A59F900DB49F900D25
:10101000A49F800D911D11240895EE0FFF1F0590D0
:10102000F491E02D0994A29FB001B39FC001A39F4A
:10103000700D811D1124911DB29F700D811D112411
:08104000911D0895F894FFCF03
:10104800FF000000003F018E00C8018C01AC018147
:02105800010095
:00000001FF
