:100000000C9463000C948B000C948B000C948B006C
:100010000C948B000C948B000C948B000C94A80314
:100020000C948B000C948B000C948B000C948B0024
:100030000C948B000C948B000C948B000C948B0014
:100040000C9404040C948B000C946E030C943303F6
:100050000C948B000C948B000C948B000C948B00F4
:100060000C948B000C948B000000000024002700EF
:100070002A0000000007000201000003040600003F
:1000800000000000000000000000230026002900FE
:10009000010204081020408001020408102001021F
:1000A0000408102000000000250028002B00040494
:1000B0000404040404040202020202020303030310
:1000C000030302004E0411241FBECFEFD8E0DEBFB1
:1000D000CDBF11E0A0E0B1E0E0E9F0E102C00590A1
:1000E0000D92A231B107D9F721E0A2E1B1E001C040
:1000F0001D92AE3DB207E1F710E0C3E6D0E004C0C8
:100100002197FE010E943108C236D107C9F70E942B
:100110009C040C9459060C9400000895CF92DF9231
:10012000EF92FF920F931F93CF93DF936C01EB013C
:100130007B01E40EF51E00E010E0CE15DF0561F056
:100140006991D601ED91FC910190F081E02DC601FD
:100150000995080F191FF1CFC801DF91CF911F91A9
:100160000F91FF90EF90DF90CF9008950F931F9322
:10017000CF93DF93FC01A685B7858D01005C1F4FEF
:10018000E8018881998101968F739927AD014E5BB3
:100190005F4FEA012881398128173907D1F3E80137
:1001A00028813981A20FB31F6C93A685B785A05C07
:1001B000BF4F11969C938E93A689B7892C9181E0AD
:1001C00090E0078C02C0880F991F0A94E2F7822BF7
:1001D0008C9381E081A30488F589E02D808180647F
:1001E000808381E090E0DF91CF911F910F9108957E
:1001F000FC0181A1882329F0A489B5898C9186FF0F
:10020000FBCF11A20895FC01A485B585FD01E05C3A
:10021000FF4F2081318132968081918128173907E3
:1002200079F080819181A80FB91F8C912081318153
:100230002F5F3F4F2F7333273183208390E0089542
:100240008FEF9FEF0895DC011C96ED91FC911D97B7
:10025000DF01A05CBF4F2D913C91119712968D91BB
:100260009C9111972817390739F08D919C91E80FCF
:10027000F91F808190E008958FEF9FEF0895FC01B2
:1002800024853585F901E05CFF4F808191813296AC
:1002900020813181821B930B8F739927089584EB02
:1002A00091E00C943F0190E0FC01EE58FF4F249147
:1002B000FC01E057FF4F3491FC01E255FF4FE49100
:1002C000EE2309F43CC0222339F1233091F038F4B5
:1002D0002130A9F0223001F584B58F7D12C026307F
:1002E00091F02730A1F02430B9F4809180008F7D07
:1002F00003C0809180008F77809380000DC084B50B
:100300008F7784BD09C08091B0008F7703C0809142
:10031000B0008F7D8093B000F0E0EE0FFF1FEC5532
:10032000FF4FA591B4919FB7F894611104C08C91CF
:100330003095382302C0EC913E2B3C939FBF08952B
:1003400090910001891324C0E2ECF0E0E4919FEF6A
:1003500090930001E130B9F098F0E230C9F4909147
:1003600070009D7F9093700091E09093B000909109
:10037000B100987F94609093B1001092B30008C0D0
:1003800010926E0005C090916F009D7F90936F005A
:1003900060E00C945301CF93DF9390E0FC01E057B1
:1003A000FF4F2491FC01E255FF4F8491882361F1B6
:1003B00090E0880F991FFC01E859FF4FC591D49137
:1003C000FC01EC55FF4FA591B491611109C09FB795
:1003D000F8948881209582238883EC912E230BC08A
:1003E000623061F49FB7F8948881322F309583236F
:1003F0008883EC912E2B2C939FBF06C08FB7F89467
:10040000E8812E2B28838FBFDF91CF910895CF9362
:1004100080910001893021F08F3F09F0D7C004C0DE
:10042000E2ECF0E0C49175C089E080930001E2EC59
:10043000F0E0E491EF3F09F4C9C0E13009F446C0AF
:1004400048F1E23009F064C01092B0001092B1009F
:100450008091B00082608093B0008091B100816093
:100460008093B100E7EBF0E0E491F0E0EE0FFF1FC6
:10047000EC55FF4F8591949190931D0180931C0141
:10048000E9E9F0E0E491E0931B0161E089E00E947A
:10049000CB0197C014BC15BC84B5826084BD85B502
:1004A000816085BDE7EBF0E0E491F0E0EE0FFF1F27
:1004B000EC55FF4F85919491E9E9F0E0E491E093E8
:1004C0001F0161E089E00E94CB0165C010928000AD
:1004D00010928100809181008860809381008091DA
:1004E0008100816080938100E7EBF0E0E491F0E02F
:1004F000EE0FFF1FEC55FF4F85919491E9E9F0E075
:10050000E491E0931E0161E089E00E94CB010EC0FE
:10051000CE2FC7FD5BC061E089E00E94CB01CC23F8
:10052000D1F1C23009F44DC0C130F1F480918100A5
:10053000887F8160809381008FE097E290938900AB
:100540008093880080EE91E0A0E0B0E080932401E9
:1005500090932501A0932601B093270180916F000D
:10056000826080936F0032C0C23081F58FE080934B
:10057000B30080EE91E0A0E0B0E080932001909382
:100580002101A0932201B093230180917000826029
:10059000809370001BC083E085BD8BE987BD80EE32
:1005A00091E0A0E0B0E08093280190932901A0930E
:1005B0002A01B0932B0180916E00826080936E00BF
:1005C00005C084E08093B1008BE9D1CFCF9108952D
:1005D0003FB7F8948091170190911801A0911901EB
:1005E000B0911A0126B5A89B05C02F3F19F00196BE
:1005F000A11DB11D3FBFBA2FA92F982F8827820FA9
:10060000911DA11DB11DBC01CD0142E0660F771FF8
:10061000881F991F4A95D1F70895CF92DF92EF92E4
:10062000FF92CF93DF936B017C010E94E802EB0104
:10063000C114D104E104F10479F00E94E8026C1BBA
:100640007D0B683E7340A0F381E0C81AD108E10831
:10065000F108C851DC4FECCFDF91CF91FF90EF90C4
:10066000DF90CF9008951F920F920FB60F92112432
:100670002F933F938F939F93EF93FF9320916C0160
:1006800030916D0180916E0190916F0128173907AB
:1006900031F48091C1008F7D8093C10014C0E0913E
:1006A0006E01F0916F01E45DFE4F208180916E013B
:1006B00090916F0101968F73992790936F018093AA
:1006C0006E012093C600FF91EF919F918F913F9112
:1006D0002F910F900FBE0F901F9018951F920F92A1
:1006E0000FB60F9211242F934F935F938F939F9385
:1006F000EF93FF938091C00082FD1CC02091C60043
:100700008091B0019091B1014091B2015091B3013B
:1007100001968F7399274817590771F0E091B0013E
:10072000F091B101E059FE4F20839093B101809385
:10073000B00102C08091C600FF91EF919F918F910F
:100740005F914F912F910F900FBE0F901F901895B2
:100750001F920F920FB60F9211242F933F934F9336
:100760005F936F937F938F939F93AF93BF93EF9319
:10077000FF938091200190912101A0912201B091DD
:100780002301892B8A2B8B2B51F190911B01E09136
:100790001C01F0911D0180818927808380912001B7
:1007A00090912101A0912201B09123011816190600
:1007B0001A061B06C4F48091200190912101A0919A
:1007C0002201B09123010197A109B1098093200171
:1007D00090932101A0932201B093230104C0809142
:1007E00000010E94A001FF91EF91BF91AF919F91F5
:1007F0008F917F916F915F914F913F912F910F90CA
:100800000FBE0F901F9018951F920F920FB60F9268
:1008100011242F933F938F939F93AF93BF93809116
:10082000130190911401A0911501B091160130911E
:10083000120123E0230F2D3720F40196A11DB11DD5
:1008400005C026E8230F0296A11DB11D20931201B9
:100850008093130190931401A0931501B093160196
:100860008091170190911801A0911901B0911A017E
:100870000196A11DB11D8093170190931801A093BB
:100880001901B0931A01BF91AF919F918F913F9140
:100890002F910F900FBE0F901F901895E4EBF1E091
:1008A0001382128288EE93E0A0E0B0E08483958307
:1008B000A683B78385E091E09183808380E791E010
:1008C000958784878CE291E09787868785EC90E016
:1008D000918B808B84EC90E0938B828B80EC90E00A
:1008E000958B848B81EC90E0978B868B82EC90E0EB
:1008F000918F808F86EC90E0938F828F84E0848F3D
:1009000093E0958F27E0268F25E0278F21E020A315
:10091000E6EDF1E09083818380E991E09383828327
:10092000148215821682178261E083E00E94CB0157
:1009300060E084E00C94CB01789484B5826084BD3F
:1009400084B5816084BD85B5826085BD85B58160D3
:1009500085BD80916E00816080936E001092810051
:10096000809181008260809381008091810081600C
:1009700080938100809180008160809380008091CD
:10098000B10084608093B1008091B0008160809359
:10099000B00080917A00846080937A0080917A0020
:1009A000826080937A0080917A00816080937A00DF
:1009B00080917A00806880937A001092C10061E093
:1009C00089E00E94CB01E091C801F091C90181E06A
:1009D00090E09C010090D40102C0220F331F0A94C2
:1009E000E2F72083E091C401F091C5011082E0910B
:1009F000C601F091C7012FEC20831092D501E09140
:100A0000CA01F091CB0140819C010090D00102C04D
:100A1000220F331F0A94E2F7242B2083E091CA01AE
:100A2000F091CB0140819C010090D10102C0220FC6
:100A3000331F0A94E2F7242B2083E091CA01F0913E
:100A4000CB0140819C010090D20102C0220F331FD4
:100A50000A94E2F7242B2083E091CA01F091CB01A4
:100A600020810090D30102C0880F991F0A94E2F7F9
:100A7000809582238083C2E0D0E002E210E060E053
:100A80008091D6010E945301CE010197F1F761E0F8
:100A90008091D6010E945301C8010197F1F760E0EF
:100AA0008091D6010E9453016091D8017091D901C3
:100AB00080E090E00E9402076B017C0120E030E0C2
:100AC00040E250E40E94B9072AE23EE74CE05DE3D1
:100AD0000E9461060E94D3068090DA019090DB01AB
:100AE000A090DC01B090DD0181149104A104B10457
:100AF00039F086169706A806B90610F4C501B401A8
:100B00002091D70130E0F901E057FF4F3490F9010F
:100B1000E255FF4F2491AB01BC017F70822F90E022
:100B2000880F991F8A579F4F2A013B012FEF421AC6
:100B3000520A620A720A812C912C5401FC01A5917F
:100B4000B4912C91232132121AC02FEF821A920AEB
:100B5000A20AB20A84149504A604B70479F745C022
:100B6000240135012FEF421A520A620A720A48150F
:100B700059056A057B0509F438C053014201FC019F
:100B8000A591B4912C9123213212EACF2A013B0185
:100B9000481859086A087B085301420120E030E0F8
:100BA000A901FC01A591B4916C91632136120AC090
:100BB000281539054A055B05C1F02F5F3F4F4F4FA0
:100BC0005F4FEFCFA5E1B0E00E942608DC01CB012A
:100BD0004096A11DB11DBC01CD0124E096958795DD
:100BE000779567952A95D1F703C060E070E0CB0157
:100BF0000E94020720E030E040E05FE30E94B90776
:100C00002AE23EE74CE05DE30E94B9074B015C013C
:100C100020E030E0A9010E945C068823B1F1A50123
:100C20009401C701B6010E945C0687FD2EC020E03A
:100C300030E048EC51E4C501B4010E94B407181635
:100C4000D4F420E030E048E452E4C501B4010E944D
:100C50005C06181684F00E9407026AEF70E080E0DC
:100C600090E00E940D0389E00E94A00164EF71E012
:100C700080E090E019C020E030E048EC51E4C5018C
:100C8000B4010E945C0618168CF00E9407026AEFFD
:100C900070E080E090E00E940D0389E00E94A001D6
:100CA0006AEF70E080E090E00E940D030E944F0127
:100CB000E6CEF8940C9446080E943F0708F481E0C1
:100CC00008950E9475060C947A070E94730758F0E5
:100CD0000E946C0740F029F45F3F29F00C946307F1
:100CE00051110C94AE070C9469070E948B0768F3AE
:100CF0009923B1F3552391F3951B550BBB27AA27D5
:100D000062177307840738F09F5F5F4F220F331F0E
:100D1000441FAA1FA9F335D00E2E3AF0E0E832D0D6
:100D200091505040E695001CCAF72BD0FE2F29D0D9
:100D3000660F771F881FBB1F261737074807AB07AB
:100D4000B0E809F0BB0B802DBF01FF2793585F4F20
:100D50003AF09E3F510578F00C9463070C94AE076F
:100D60005F3FE4F3983ED4F3869577956795B79502
:100D7000F7959F5FC9F7880F911D9695879597F90D
:100D80000895E1E0660F771F881FBB1F6217730786
:100D90008407BA0720F0621B730B840BBA0BEE1F9B
:100DA00088F7E09508950E94930788F09F5798F080
:100DB000B92F9927B751B0F0E1F0660F771F881F60
:100DC000991F1AF0BA95C9F714C0B13091F00E947A
:100DD000AD07B1E008950C94AD07672F782F8827F1
:100DE000B85F39F0B93FCCF3869577956795B395A1
:100DF000D9F73EF490958095709561957F4F8F4F10
:100E00009F4F0895E89409C097FB3EF49095809514
:100E1000709561957F4F8F4F9F4F9923A9F0F92FC0
:100E200096E9BB279395F695879577956795B7953E
:100E3000F111F8CFFAF4BB0F11F460FF1BC06F5F24
:100E40007F4F8F4F9F4F16C0882311F096E911C036
:100E5000772321F09EE8872F762F05C0662371F057
:100E600096E8862F70E060E02AF09A95660F771F6B
:100E7000881FDAF7880F9695879597F90895990F47
:100E80000008550FAA0BE0E8FEEF16161706E80754
:100E9000F907C0F012161306E407F50798F0621B75
:100EA000730B840B950B39F40A2661F0232B242B4A
:100EB000252B21F408950A2609F4A140A6958FEF69
:100EC000811D811D089597F99F6780E870E060E0BB
:100ED00008959FEF80EC089500240A9416161706D3
:100EE00018060906089500240A941216130614061B
:100EF00005060895092E0394000C11F4882352F07E
:100F0000BB0F40F4BF2B11F460FF04C06F5F7F4F35
:100F10008F4F9F4F089557FD9058440F551F59F01C
:100F20005F3F71F04795880F97FB991F61F09F3FD6
:100F300079F087950895121613061406551FF2CFFF
:100F40004695F1DF08C0161617061806991FF1CF4F
:100F500086957105610508940895E894BB27662776
:100F60007727CB0197F908950E943F0708F48FEF88
:100F700008950E94CC070C947A070E946C0738F001
:100F80000E94730720F0952311F00C9463070C94D2
:100F9000690711240C94AE070E948B0770F3959F8C
:100FA000C1F3950F50E0551F629FF001729FBB2760
:100FB000F00DB11D639FAA27F00DB11DAA1F649FFC
:100FC0006627B00DA11D661F829F2227B00DA11DAF
:100FD000621F739FB00DA11D621F839FA00D611D35
:100FE000221F749F3327A00D611D231F849F600D56
:100FF000211D822F762F6A2F11249F5750409AF07F
:10100000F1F088234AF0EE0FFF1FBB1F661F771F0A
:10101000881F91505040A9F79E3F510580F00C94D5
:1010200063070C94AE075F3FE4F3983ED4F38695D4
:1010300077956795B795F795E7959F5FC1F7FE2B75
:10104000880F911D9695879597F908950E94370806
:10105000A59F900DB49F900DA49F800D911D11240C
:101060000895EE0FFF1F0590F491E02D0994A29FC3
:10107000B001B39FC001A39F700D811D1124911D6C
:10108000B29F700D811D1124911D0895F894FFCF1A
:10109000FF00000000B6008E003F0103012301F8AD
:0210A00000004E
:00000001FF
