:100000000C9462000C948A000C948A000C948A0070
:100010000C948A000C948A000C948A000C948A0038
:100020000C948A000C948A000C948A000C948A0028
:100030000C948A000C948A000C948A000C948A0018
:100040000C9498020C948A000C945E020C94230287
:100050000C948A000C948A000C948A000C948A00F8
:100060000C948A000C948A000000000023002600F3
:100070002900000000070002010000030406000040
:1000800000000000000000000000250028002B00F8
:1000900000000000240027002A00040404040404D3
:1000A0000404020202020202030303030303010227
:1000B00004081020408001020408102001020408F6
:1000C0001020E20211241FBECFEFD8E0DEBFCDBF6B
:1000D00011E0A0E0B1E0ECECF0E102C005900D927F
:1000E000AE31B107D9F721E0AEE1B1E001C01D9218
:1000F000A93DB207E1F710E0C2E6D0E004C02197C5
:10010000FE010E944F08C136D107C9F70E9489033A
:100110000C94DC050C94000090E0FC01EE58FF4FBD
:100120002491FC01E255FF4F3491FC01E656FF4F4C
:10013000E491EE2309F43CC0222339F1233091F0FD
:1001400038F42130A9F0223001F584B58F7D12C03A
:10015000263091F02730A1F02430B9F4809180004E
:100160008F7D03C0809180008F77809380000DC0C9
:1001700084B58F7784BD09C08091B0008F7703C0AC
:100180008091B0008F7D8093B000F0E0EE0FFF1FF4
:10019000EA57FF4FA591B4919FB7F894611104C03D
:1001A0008C913095382302C0EC913E2B3C939FBF3D
:1001B00008950F931F93CF93DF93FC01A685B78516
:1001C0008D01005C1F4FE8018881998101968F7332
:1001D0009927AD014E5B5F4FEA01288139812817CD
:1001E0003907D1F3E80128813981A20FB31F6C933D
:1001F000A685B785A05CBF4F11969C938E93A68968
:10020000B7892C9181E090E0078C02C0880F991F7C
:100210000A94E2F7822B8C9381E081A30488F5890C
:10022000E02D80818064808381E090E0DF91CF9138
:100230001F910F910895FC0181A1882329F0A489C1
:10024000B5898C9186FFFBCF11A20895FC01A4858E
:10025000B585FD01E05CFF4F2081318132968081C0
:1002600091812817390779F080819181A80FB91FF2
:100270008C91208131812F5F3F4F2F733327318342
:10028000208390E008958FEF9FEF0895DC011C9686
:10029000ED91FC911D97DF01A05CBF4F2D913C912A
:1002A000119712968D919C9111972817390739F063
:1002B0008D919C91E80FF91F808190E008958FEF58
:1002C0009FEF0895FC0124853585F901E05CFF4F1F
:1002D00080819181329620813181821B930B8F73B3
:1002E000992708958FEA91E00C9462010895CF92C6
:1002F000DF92EF92FF920F931F93CF93DF936C01E6
:10030000EB017B01E40EF51E00E010E0CE15DF05E9
:1003100061F06991D601ED91FC910190F081E02DA1
:10032000C6010995080F191FF1CFC801DF91CF91C0
:100330001F910F91FF90EF90DF90CF9008953FB7FE
:10034000F8948091230190912401A0912501B0910E
:10035000260126B5A89B05C02F3F19F00196A11DC7
:10036000B11D3FBFBA2FA92F982F8827820F911D4B
:10037000A11DB11DBC01CD0142E0660F771F881F92
:10038000991F4A95D1F70895009769F0FC010190F3
:100390000020E9F73197AF01481B590BBC018FEAE8
:1003A00091E00C94770180E090E008958F929F9205
:1003B000AF92BF92EF92FF920F931F93CF93DF9371
:1003C000CDB7DEB7A1970FB6F894DEBF0FBECDBF95
:1003D000162F042F19A2423008F40AE07E0121E210
:1003E000E20EF11C802E912CA12CB12C612FA501C5
:1003F00094010E942208029F1019112481E0E81A3A
:10040000F1081A3014F4105D01C0195CF701108373
:10041000122F732FCA01232B242B252B39F7C70149
:100420000E94C401A1960FB6F894DEBF0FBECDBFE7
:10043000DF91CF911F910F91FF90EF90BF90AF9000
:100440009F908F9008951F920F920FB60F921124D4
:100450002F933F938F939F93EF93FF932091670187
:10046000309168018091690190916A0128173907DC
:1004700031F48091C1008F7D8093C10014C0E09160
:100480006901F0916A01E95DFE4F20818091690167
:1004900090916A0101968F73992790936A018093D6
:1004A00069012093C600FF91EF919F918F913F9139
:1004B0002F910F900FBE0F901F9018951F920F92C3
:1004C0000FB60F9211242F934F935F938F939F93A7
:1004D000EF93FF938091C00082FD1CC02091C60065
:1004E0008091AB019091AC014091AD015091AE0172
:1004F00001968F7399274817590771F0E091AB0166
:10050000F091AC01E559FE4F20839093AC018093AC
:10051000AB0102C08091C600FF91EF919F918F9136
:100520005F914F912F910F900FBE0F901F901895D4
:100530001F920F920FB60F9211242F933F938F9318
:100540009F93AF93BF9380911F0190912001A09141
:100550002101B091220130911E0123E0230F2D379C
:1005600020F40196A11DB11D05C026E8230F0296B7
:10057000A11DB11D20931E0180931F0190932001A6
:10058000A0932101B0932201809123019091240135
:10059000A0912501B09126010196A11DB11D809366
:1005A000230190932401A0932501B0932601BF91CC
:1005B000AF919F918F913F912F910F900FBE0F9010
:1005C0001F901895CF93DF931092B2011092B10152
:1005D00088EE93E0A0E0B0E08093B3019093B40183
:1005E000A093B501B093B60184E091E09093B0017F
:1005F0008093AF018BE691E09093BC018093BB01A7
:1006000087E291E09093BE018093BD0185EC90E07C
:100610009093C0018093BF0184EC90E09093C2015D
:100620008093C10180EC90E09093C4018093C3015A
:1006300081EC90E09093C6018093C50182EC90E03C
:100640009093C8018093C70186EC90E09093CA0113
:100650008093C90184E08093CB0193E09093CC0117
:1006600027E02093CD0125E02093CE0121E02093C7
:10067000CF019093D1018093D20180E991E09093D2
:10068000D4018093D3011092D5011092D60110921B
:10069000D7011092D801E1EBF0E02491EDE9F0E010
:1006A0008491882399F090E0880F991FFC01E0570E
:1006B000FF4FA591B491FC01EA57FF4F85919491AA
:1006C0008FB7F894EC91E22BEC938FBFE2EBF0E064
:1006D0002491EEE9F0E084918823C1F090E0880F46
:1006E000991FFC01E057FF4FC591D491FC01EA57D7
:1006F000FF4FA591B4919FB7F8948881E22FE095C0
:100700008E2388838C91E823EC939FBFDF91CF9158
:100710000895789484B5826084BD84B5816084BD79
:1007200085B5826085BD85B5816085BD80916E008F
:10073000816080936E0010928100809181008260C0
:1007400080938100809181008160809381008091FD
:1007500080008160809380008091B10084608093EC
:10076000B1008091B00081608093B00080917A00E8
:10077000846080937A0080917A00826080937A000E
:1007800080917A00816080937A0080917A008068FD
:1007900080937A001092C100E091C301F091C401EE
:1007A00081E090E09C010090CF0102C0220F331F36
:1007B0000A94E2F72083E091BF01F091C00110821A
:1007C000E091C101F091C2012FEC20831092D00181
:1007D000E091C501F091C60140819C010090CB01E0
:1007E00002C0220F331F0A94E2F7242B2083E091EA
:1007F000C501F091C60140819C010090CC0102C06E
:10080000220F331F0A94E2F7242B2083E091C501C5
:10081000F091C60140819C010090CD0102C0220FE1
:10082000331F0A94E2F7242B2083E091C501F09155
:10083000C60120810090CE0102C0880F991F0A9442
:10084000E2F7809582238083C2E0D0E002E210E0EC
:1008500060E08091D1010E948C00CE010197F1F7F8
:1008600061E08091D1010E948C00C8010197F1F7ED
:1008700060E08091D1010E948C006091D301709161
:10088000D40180E090E00E94F9064B015C0120E079
:1008900030E040E250E40E94B0072AE23EE74CE03C
:1008A0005DE30E9451060E94CA06C090D501D09017
:1008B000D601E090D701F090D801C114D104E10431
:1008C000F10439F0C616D706E806F90610F4C70198
:1008D000B6012091D20130E0F901E255FF4F34908A
:1008E000F901E656FF4F2491AB01BC017F70822FC6
:1008F00090E0880F991F88599F4F2A013B012FEFE5
:10090000421A520A620A720AC12CD12C7601FC01E9
:10091000A591B4912C91232132121AC02FEFC21A43
:10092000D20AE20AF20AC414D504E604F70479F7FD
:1009300045C0260137012FEF421A520A620A720A95
:100940004C155D056E057F0509F438C07301620121
:10095000FC01A591B4912C9123213212EACF2A01F6
:100960003B014C185D086E087F087301620120E0AE
:1009700030E0A901FC01A591B4916C91632136127C
:100980000AC02C153D054E055F05C1F02F5F3F4F96
:100990004F4F5F4FEFCFA5E1B0E00E944408DC016C
:1009A000CB014096A11DB11DBC01CD0134E096954F
:1009B0008795779567953A95D1F703C060E070E029
:1009C000CB010E94F90620E030E040E05FE30E94A6
:1009D000B0072AE23EE74CE05DE30E94B0076B01FE
:1009E0007C0120E030E0A9010E944C06882399F0A8
:1009F000A7019601C501B4010E944C0687FD0BC0FA
:100A0000A7019601C701B6010E941D08882349F07D
:100A100080E191E020C0C12CD12C20E8E22E2FEB08
:100A2000F22E46015701E894B7F82FEF3FEF4FE75A
:100A30005FE7C501B4010E941D0881110FC02FEFAF
:100A40003FEF4FE75FE7C501B4010E944C0618165F
:100A50002CF484E191E00E94C40183C02FEF3FEFAA
:100A60004FE75FE4C701B6010E94AB0718161CF4FC
:100A700088E191E0F0CF2FEF3FEF4FE75FECC70148
:100A8000B6010E944C0687FDF3CF20E030E0A901BB
:100A9000C701B6010E944C0687FF09C06DE28FEACC
:100AA00091E00E94D900F7FAF094F7F8F0942AE068
:100AB00037ED43EA5BE3C701B6010E94E0056B0135
:100AC0007C010E94CA064B015C010E94F9069B0151
:100AD000AC01C701B6010E94DF056B017C014AE051
:100AE000C501B4010E94D6018CE191E00E94C401CD
:100AF00093E0B92EBA94BB20A1F120E030E040E2AF
:100B000051E4C701B6010E94B0072B013C010E94CD
:100B1000C3066B01770FEE08FF08F7FE10C06DE209
:100B20008FEA91E00E94D90088279927DC018C196F
:100B30009D09AE09BF094AE0BC01CD0103C04AE0EE
:100B4000C701B6010E94D601C701B6010E94FB068B
:100B50009B01AC01C301B2010E94DF056B017C0166
:100B6000C9CF6DE08FEA91E00E94D9006AE08FEA78
:100B700091E00E94D9000E949F017B0184EF882EA2
:100B800099249394A12CB12C0E949F016E197F0986
:100B9000683E7340C8F381E0881A9108A108B10843
:100BA00028E1E21A2CEFF20A81149104A104B104A5
:100BB00059F70E9472014CCEF8940C946408505876
:100BC000BB27AA270E94F7050C9471070E946307B0
:100BD00038F00E946A0720F039F49F3F19F426F498
:100BE0000C9460070EF4E095E7FB0C945A07E92F8C
:100BF0000E94820758F3BA176207730784079507A4
:100C000020F079F4A6F50C94A4070EF4E0950B2ED1
:100C1000BA2FA02D0B01B90190010C01CA01A0014E
:100C20001124FF27591B99F0593F50F4503E68F1A9
:100C30001A16F040A22F232F342F4427585FF3CFEA
:100C4000469537952795A795F0405395C9F77EF4BB
:100C50001F16BA0B620B730B840BBAF09150A1F004
:100C6000FF0FBB1F661F771F881FC2F70EC0BA0F8A
:100C7000621F731F841F48F4879577956795B79512
:100C8000F7959E3F08F0B0CF9395880F08F099270D
:100C9000EE0F9795879508950E94360708F481E036
:100CA00008950E9465060C9471070E946A0758F027
:100CB0000E94630740F029F45F3F29F00C945A0723
:100CC00051110C94A5070C9460070E94820768F3E9
:100CD0009923B1F3552391F3951B550BBB27AA27F5
:100CE00062177307840738F09F5F5F4F220F331F2F
:100CF000441FAA1FA9F335D00E2E3AF0E0E832D0F7
:100D000091505040E695001CCAF72BD0FE2F29D0F9
:100D1000660F771F881FBB1F261737074807AB07CB
:100D2000B0E809F0BB0B802DBF01FF2793585F4F40
:100D30003AF09E3F510578F00C945A070C94A507A1
:100D40005F3FE4F3983ED4F3869577956795B79522
:100D5000F7959F5FC9F7880F911D9695879597F92D
:100D60000895E1E0660F771F881FBB1F62177307A6
:100D70008407BA0720F0621B730B840BBA0BEE1FBB
:100D800088F7E09508950E94CA066894B1110C9402
:100D9000A50708950E948A0788F09F5798F0B92FF9
:100DA0009927B751B0F0E1F0660F771F881F991FA0
:100DB0001AF0BA95C9F714C0B13091F00E94A40797
:100DC000B1E008950C94A407672F782F8827B85FA7
:100DD00039F0B93FCCF3869577956795B395D9F7F8
:100DE0003EF490958095709561957F4F8F4F9F4F02
:100DF0000895E89409C097FB3EF49095809570950E
:100E000061957F4F8F4F9F4F9923A9F0F92F96E956
:100E1000BB279395F695879577956795B795F111CB
:100E2000F8CFFAF4BB0F11F460FF1BC06F5F7F4F68
:100E30008F4F9F4F16C0882311F096E911C077237A
:100E400021F09EE8872F762F05C0662371F096E883
:100E5000862F70E060E02AF09A95660F771F881F52
:100E6000DAF7880F9695879597F90895990F0008F6
:100E7000550FAA0BE0E8FEEF16161706E807F9076C
:100E8000C0F012161306E407F50798F0621B730B07
:100E9000840B950B39F40A2661F0232B242B252B88
:100EA00021F408950A2609F4A140A6958FEF811D2B
:100EB000811D089597F99F6780E870E060E00895CC
:100EC0009FEF80EC089500240A9416161706180662
:100ED0000906089500240A9412161306140605063E
:100EE0000895092E0394000C11F4882352F0BB0FCF
:100EF00040F4BF2B11F460FF04C06F5F7F4F8F4F32
:100F00009F4F089557FD9058440F551F59F05F3F6C
:100F100071F04795880F97FB991F61F09F3F79F01B
:100F200087950895121613061406551FF2CF46959D
:100F3000F1DF08C0161617061806991FF1CF86951F
:100F40007105610508940895E894BB276627772703
:100F5000CB0197F908950E94360708F48FEF0895A2
:100F60000E94C3070C9471070E94630738F00E9427
:100F70006A0720F0952311F00C945A070C9460072F
:100F800011240C94A5070E94820770F3959FC1F36A
:100F9000950F50E0551F629FF001729FBB27F00D27
:100FA000B11D639FAA27F00DB11DAA1F649F66277C
:100FB000B00DA11D661F829F2227B00DA11D621FCB
:100FC000739FB00DA11D621F839FA00D611D221F85
:100FD000749F3327A00D611D231F849F600D211D69
:100FE000822F762F6A2F11249F5750409AF0F1F0EC
:100FF00088234AF0EE0FFF1FBB1F661F771F881F55
:1010000091505040A9F79E3F510580F00C945A072B
:101010000C94A5075F3FE4F3983ED4F3869577954B
:101020006795B795F795E7959F5FC1F7FE2B880FFA
:10103000911D9695879597F908950E943607880B1C
:10104000990B0895A1E21A2EAA1BBB1BFD010DC02E
:10105000AA1FBB1FEE1FFF1FA217B307E407F50768
:1010600020F0A21BB30BE40BF50B661F771F881F44
:10107000991F1A9469F760957095809590959B01DA
:10108000AC01BD01CF0108950E945508A59F900DA8
:10109000B49F900DA49F800D911D11240895EE0F13
:1010A000FF1F0590F491E02D0994A29FB001B39F1A
:1010B000C001A39F700D811D1124911DB29F700D61
:0C10C000811D1124911D0895F894FFCFAC
:1010CC0000000000D90077016201260146011B01D6
:0E10DC006E616E00696E66006F7666002E0013
:00000001FF
